:020000040000fa
:0800000058a4040000000000f8
:020000040000fa
:1000080004a2000008a200000ca2000010a2000038
:1000180014a2000000a2000018a2000000a2000024
:100028001ca2000020a2000024a2000028a20000b8
:100038002ca2000000a2000030a2000034a20000a0
:1000480038a200003ca2000040a2000044a2000028
:1000580048a200004ca2000050a2000054a20000d8
:1000680058a200005ca2000060a2000064a2000088
:1000780068a200006ca2000000a2000070a20000ac
:1000880074a2000078a200007ca2000080a20000f8
:1000980084a2000088a200008ca2000090a20000a8
:1000a80000a2000000a2000000a2000094a200002c
:1000b80098a200009ca20000a0a2000000a20000dc
:1000c800a4a20000a8a2000000a2000054a1000001
:1000d80054a10000aca20000b0a20000b4a200002d
:1000e800b8a20000bca20000c0a20000c4a2000088
:1000f800c8a2000000a20000cca2000000a20000dc
:10010800d0a20000d4a20000d8a20000dca2000007
:10011800e0a20000e4a20000e8a20000eca20000b7
:10012800f0a20000f4a2000000a20000f8a2000063
:10013800fca2000000a3000004a3000008a3000024
:100148000ca3000010a3000014a3000018a30000d3
:1001580000a200001ca3000020a3000024a30000ac
:1001680000a2000028a300002ca3000030a3000078
:1001780034a3000038a300003ca3000040a3000003
:1001880044a3000048a300004ca3000050a30000b3
:1001980054a3000058a300005ca3000060a3000063
:1001a80064a3000068a300006ca3000070a3000013
:1001b80074a3000078a300007ca3000080a30000c3
:1001c80084a3000088a300008ca3000090a3000073
:1001d80094a3000098a300009ca30000a0a3000023
:1001e800a4a30000a8a30000aca30000b0a30000d3
:1001f800b4a30000b8a30000bca30000c0a3000083
:10020800c4a30000c8a30000cca30000d0a3000032
:10021800d4a30000d8a30000dca30000e0a30000e2
:10022800e4a3000000a2000000a2000000a2000059
:1002380000a2000000a2000000a2000000a200002e
:1002480000a2000000a2000000a2000000a200001e
:1002580000a2000000a20000e8a30000eca3000038
:10026800f0a3000000a2000000a2000000a200000d
:1002780000a20000f4a30000f8a3000000a2000000
:10028800fca3000000a4000000a2000000a20000df
:1002980000a2000000a2000000a2000000a20000ce
:1002a80000a2000000a2000000a2000000a20000be
:1002b80000a2000000a2000000a2000000a20000ae
:1002c80000a2000004a4000008a400000ca4000080
:1002d80010a4000014a4000018a400001ca400002e
:1002e80020a4000024a4000028a400002ca40000de
:1002f80030a4000034a4000038a4000000a20000cc
:1003080000a2000000a2000000a2000000a200005d
:1003180000a200003ca4000040a4000044a4000087
:1003280048a400004ca4000050a4000054a40000fd
:1003380000a2000000a2000000a2000000a200002d
:1003480000a2000000a2000000a2000000a200001d
:1003580000a2000000a2000000a2000000a200000d
:1003680000a2000000a2000000a2000000a20000fd
:1003780000a2000000a2000000a2000000a20000ed
:1003880000a2000000a2000000a2000000a20000dd
:1003980000a2000000a2000000a2000000a20000cd
:1003a80000a2000000a2000000a2000000a20000bd
:1003b80000a2000000a2000000a2000000a20000ad
:1003c80000a2000000a2000000a2000000a200009d
:1003d80000a2000000a2000000a2000000a200008d
:1003e80000a2000000a2000000a2000000a200007d
:0803f80000a2000000a20000b9
:020000040000fa
:020000040001f9
:0840000058a4040000000000b8
:020000040000fa
:020000040001f9
:104008000000fe00e238210000197800010978005c
:10401800000006000000fe000000eb008000eb003e
:10402800f8ff0700d628ef00000006000000fe0099
:104038000000fe00801f7800811f7800821f780032
:10404800e138210012468000c3e8a9003100780059
:10405800b046880011007800b0468800d1e8a80072
:104068000000000000000000d1e8af00feff3700ac
:1040780002f0a700c3e8a8004f017800cf0078003d
:104088004f007800000006000000fe00a202800039
:10409800a10288009080ba001000ba00a20288002d
:1040a800000006000000fe00a2028000a1028800b5
:1040b8001000ba00a2028800000006000000fe00fe
:1040c800f27f20000001610008003a00320024005d
:1040d8008246880090468800a14688001ea00200fb
:1040e8000000000010002000d1a8af000000200050
:1040f800000006000000fe00d1e8af00feff370018
:104108000000a700130037000010a70011003700b7
:10411800a146880090468800100024008046880048
:10412800a0028000a10f2000a10288000100200049
:104138008208bb008398bb008408bb008598bb003d
:104148001ea0020000000000a0028800100020004d
:10415800d1a8af0000002000000006000000fe000b
:10416800d1e8af00feff37000000a70014003700b9
:104178000010a70012003700a1468800904688006a
:10418800a10280001000240080468800a00f2000b3
:10419800a0028800000020000208bb00f20f2000e7
:1041a8000298bb000308bb000298bb001ea00200d7
:1041b80000000000a102880010002000d1a8af0074
:1041c80000002000000006000000fe00d1e8af005b
:1041d800feff3700f30f20008081610009003a00dc
:1041e80090468800a1468800200024008046880068
:1041f800c24688001ea00200000000001000200037
:10420800d1a8af0000002000000006000000fe005a
:10421800d1e8af00feff3700f30f20008081610076
:1042280015003a0090468800a14688001000240036
:1042380080468800a00f2000a0028800000020000f
:1042480001082000f40f20003208bb000498bb00ce
:104258003208bb000490bb001ea002000000000052
:10426800d2a8ec00d2a8ec002100b100f6ff3a0079
:1042780010002000d1a8af000000200000000600b8
:10428800f27f2000000061000000060002802f007d
:1042980000006100f2ff2f008100610000000600ad
:020000040000fa
:020000040001f9
:0442a800ffff3700dd
:020000040000fa
:020000040001f9
:0844000058aa040000000000ae
:020000040000fa
:020000040001f9
:0844080000a204000000000006
:020000040000fa
:020000040001f9
:0844100000a2040000000000fe
:020000040000fa
:020000040001f9
:0844180000a2040000000000f6
:020000040000fa
:020000040001f9
:0844200000a2040000000000ee
:020000040000fa
:020000040001f9
:0844280000a2040000000000e6
:020000040000fa
:020000040001f9
:0844300000a2040000000000de
:020000040000fa
:020000040001f9
:0844380000a2040000000000d6
:020000040000fa
:020000040001f9
:0844400052a504000000000079
:020000040000fa
:020000040001f9
:0844480000a2040000000000c6
:020000040000fa
:020000040001f9
:0844500000a2040000000000be
:020000040000fa
:020000040001f9
:0844580000a2040000000000b6
:020000040000fa
:020000040001f9
:0844600000a2040000000000ae
:020000040000fa
:020000040001f9
:0844680000a2040000000000a6
:020000040000fa
:020000040001f9
:0844700000a20400000000009e
:020000040000fa
:020000040001f9
:0844780000a204000000000096
:020000040000fa
:020000040001f9
:0844800000a20400000000008e
:020000040000fa
:020000040001f9
:0844880000a204000000000086
:020000040000fa
:020000040001f9
:0844900000a20400000000007e
:020000040000fa
:020000040001f9
:0844980000a204000000000076
:020000040000fa
:020000040001f9
:0844a00000a20400000000006e
:020000040000fa
:020000040001f9
:0844a80000a204000000000066
:020000040000fa
:020000040001f9
:0844b00000a20400000000005e
:020000040000fa
:020000040001f9
:0844b80000a204000000000056
:020000040000fa
:020000040001f9
:0844c00000a20400000000004e
:020000040000fa
:020000040001f9
:0844c80000a204000000000046
:020000040000fa
:020000040001f9
:0844d00000a20400000000003e
:020000040000fa
:020000040001f9
:0844d80000a204000000000036
:020000040000fa
:020000040001f9
:0844e00000a20400000000002e
:020000040000fa
:020000040001f9
:0844e80000a204000000000026
:020000040000fa
:020000040001f9
:0844f00000a20400000000001e
:020000040000fa
:020000040001f9
:0844f80000a204000000000016
:020000040000fa
:020000040001f9
:0845000000a20400000000000d
:020000040000fa
:020000040001f9
:0845080000a204000000000005
:020000040000fa
:020000040001f9
:0845100000a2040000000000fd
:020000040000fa
:020000040001f9
:0845180000a2040000000000f5
:020000040000fa
:020000040001f9
:0845200000a2040000000000ed
:020000040000fa
:020000040001f9
:0845280000a2040000000000e5
:020000040000fa
:020000040001f9
:0845300000a2040000000000dd
:020000040000fa
:020000040001f9
:0845380000a2040000000000d5
:020000040000fa
:020000040001f9
:0845400000a2040000000000cd
:020000040000fa
:020000040001f9
:0845480000a2040000000000c5
:020000040000fa
:020000040001f9
:0845500000a2040000000000bd
:020000040000fa
:020000040001f9
:0845580000a2040000000000b5
:020000040000fa
:020000040001f9
:0845600000a2040000000000ad
:020000040000fa
:020000040001f9
:0845680000a2040000000000a5
:020000040000fa
:020000040001f9
:0845700000a20400000000009d
:020000040000fa
:020000040001f9
:0845780000a204000000000095
:020000040000fa
:020000040001f9
:0845800000a20400000000008d
:020000040000fa
:020000040001f9
:0845880000a204000000000085
:020000040000fa
:020000040001f9
:0845900000a20400000000007d
:020000040000fa
:020000040001f9
:0845980000a204000000000075
:020000040000fa
:020000040001f9
:0845a00000a20400000000006d
:020000040000fa
:020000040001f9
:0845a80000a204000000000065
:020000040000fa
:020000040001f9
:0845b00000a20400000000005d
:020000040000fa
:020000040001f9
:0845b80000a204000000000055
:020000040000fa
:020000040001f9
:0845c00000a20400000000004d
:020000040000fa
:020000040001f9
:0845c80000a204000000000045
:020000040000fa
:020000040001f9
:0845d00000a20400000000003d
:020000040000fa
:020000040001f9
:0845d80000a204000000000035
:020000040000fa
:020000040001f9
:0845e00000a20400000000002d
:020000040000fa
:020000040001f9
:0845e80000a204000000000025
:020000040000fa
:020000040001f9
:0845f00000a20400000000001d
:020000040000fa
:020000040001f9
:0845f80000a204000000000015
:020000040000fa
:020000040001f9
:0846000000a20400000000000c
:020000040000fa
:020000040001f9
:0846080000a204000000000004
:020000040000fa
:020000040001f9
:0846100000a2040000000000fc
:020000040000fa
:020000040001f9
:0846180000a2040000000000f4
:020000040000fa
:020000040001f9
:0846200000a2040000000000ec
:020000040000fa
:020000040001f9
:0846280000a2040000000000e4
:020000040000fa
:020000040001f9
:0846300000a2040000000000dc
:020000040000fa
:020000040001f9
:084638006ca504000000000065
:020000040000fa
:020000040001f9
:084640005aa50400000000006f
:020000040000fa
:020000040001f9
:0846480000a2040000000000c4
:020000040000fa
:020000040001f9
:0846500000a2040000000000bc
:020000040000fa
:020000040001f9
:0846580000a2040000000000b4
:020000040000fa
:020000040001f9
:0846600000a2040000000000ac
:020000040000fa
:020000040001f9
:0846680000a2040000000000a4
:020000040000fa
:020000040001f9
:0846700000a20400000000009c
:020000040000fa
:020000040001f9
:0846780000a204000000000094
:020000040000fa
:020000040001f9
:0846800000a20400000000008c
:020000040000fa
:020000040001f9
:0846880000a204000000000084
:020000040000fa
:020000040001f9
:0846900000a20400000000007c
:020000040000fa
:020000040001f9
:0846980000a204000000000074
:020000040000fa
:020000040001f9
:0846a000bea5040000000000ab
:020000040000fa
:020000040001f9
:0846a80000a204000000000064
:020000040000fa
:020000040001f9
:0846b00000a20400000000005c
:020000040000fa
:020000040001f9
:0846b8007ea5040000000000d3
:020000040000fa
:020000040001f9
:0846c0009ea5040000000000ab
:020000040000fa
:020000040001f9
:0846c80000a204000000000044
:020000040000fa
:020000040001f9
:0846d00000a20400000000003c
:020000040000fa
:020000040001f9
:0846d80000a204000000000034
:020000040000fa
:020000040001f9
:0846e00000a20400000000002c
:020000040000fa
:020000040001f9
:0846e80000a204000000000024
:020000040000fa
:020000040001f9
:0846f00000a20400000000001c
:020000040000fa
:020000040001f9
:0846f80000a204000000000014
:020000040000fa
:020000040001f9
:0847000000a20400000000000b
:020000040000fa
:020000040001f9
:0847080000a204000000000003
:020000040000fa
:020000040001f9
:0847100000a2040000000000fb
:020000040000fa
:020000040001f9
:0847180000a2040000000000f3
:020000040000fa
:020000040001f9
:0847200000a2040000000000eb
:020000040000fa
:020000040001f9
:0847280000a2040000000000e3
:020000040000fa
:020000040001f9
:0847300000a2040000000000db
:020000040000fa
:020000040001f9
:0847380000a2040000000000d3
:020000040000fa
:020000040001f9
:0847400000a2040000000000cb
:020000040000fa
:020000040001f9
:0847480000a2040000000000c3
:020000040000fa
:020000040001f9
:0847500000a2040000000000bb
:020000040000fa
:020000040001f9
:0847580000a2040000000000b3
:020000040000fa
:020000040001f9
:0847600000a2040000000000ab
:020000040000fa
:020000040001f9
:0847680000a2040000000000a3
:020000040000fa
:020000040001f9
:0847700000a20400000000009b
:020000040000fa
:020000040001f9
:0847780000a204000000000093
:020000040000fa
:020000040001f9
:0847800000a20400000000008b
:020000040000fa
:020000040001f9
:0847880000a204000000000083
:020000040000fa
:020000040001f9
:0847900000a20400000000007b
:020000040000fa
:020000040001f9
:0847980000a204000000000073
:020000040000fa
:020000040001f9
:0847a00000a20400000000006b
:020000040000fa
:020000040001f9
:0847a80000a204000000000063
:020000040000fa
:020000040001f9
:0847b00000a20400000000005b
:020000040000fa
:020000040001f9
:0847b80000a204000000000053
:020000040000fa
:020000040001f9
:0847c00000a20400000000004b
:020000040000fa
:020000040001f9
:0847c80000a204000000000043
:020000040000fa
:020000040001f9
:0847d00000a20400000000003b
:020000040000fa
:020000040001f9
:0847d80000a204000000000033
:020000040000fa
:020000040001f9
:0847e00000a20400000000002b
:020000040000fa
:020000040001f9
:0847e80000a204000000000023
:020000040000fa
:020000040001f9
:0847f00000a20400000000001b
:020000040000fa
:020000040001f9
:0847f80000a204000000000013
:020000040000fa
:020000040001f9
:0848000000a20400000000000a
:020000040000fa
:020000040001f9
:0848080000a204000000000002
:020000040000fa
:020000040001f9
:0848100000a2040000000000fa
:020000040000fa
:020000040001f9
:0848180000a2040000000000f2
:020000040000fa
:020000040001f9
:0848200000a2040000000000ea
:020000040000fa
:020000040001f9
:0848280000a2040000000000e2
:020000040000fa
:020000040001f9
:0848300000a2040000000000da
:020000040000fa
:020000040001f9
:0848380000a2040000000000d2
:020000040000fa
:020000040001f9
:0848400000a2040000000000ca
:020000040000fa
:020000040001f9
:0848480000a2040000000000c2
:020000040000fa
:020000040001f9
:0848500000a2040000000000ba
:020000040000fa
:020000040001f9
:0848580000a2040000000000b2
:020000040000fa
:020000040001f9
:0848600000a2040000000000aa
:020000040000fa
:020000040001f9
:0848680000a2040000000000a2
:020000040000fa
:020000040001f9
:0848700000a20400000000009a
:020000040000fa
:020000040001f9
:0848780000a204000000000092
:020000040000fa
:020000040001f9
:0848800000a20400000000008a
:020000040000fa
:020000040001f9
:0848880000a204000000000082
:020000040000fa
:020000040001f9
:0848900000a20400000000007a
:020000040000fa
:020000040001f9
:0848980000a204000000000072
:020000040000fa
:020000040001f9
:0848a00000a20400000000006a
:020000040000fa
:020000040001f9
:0848a80000a204000000000062
:020000040000fa
:020000040001f9
:1048b0004f3921000eff26000e0188000000000085
:1048c000000020000000e000020032000001200093
:1048d0002002880014000700f70207000000e00033
:1048e00003003a0020472c0001002000020037009e
:1048f0000000200001002000810f70000100320044
:104900000f000700000020000000e000020032005d
:10491000000002000000000094b30200000000004c
:104920000040da000000fe00200020000000e0004f
:1049300002003200100020009001880000000600f4
:10494000a1028800800478000000eb001f003700ff
:10495000e284440054a0b4009905ba00e284440003
:1049600054a0b4009906ba00e284440054a0b400f4
:104970000006eb00476fde00fd07b200ae018800c5
:10498000636ce10003003a000ad801000000eb006c
:104990000e003700606ce10008003a00004deb00ab
:1049a0000a05e800020039003420ec000af0a000fb
:1049b0008b05e900f9ff3e00040037006168e10063
:1049c000010032000086eb000b00070019c7ba0097
:1049d0001905ba000e04e00003003a000a00e000e6
:1049e000dbff3a0000000600fe07b200ae028800be
:1049f0008a047800f5ff37000cd0a300e20f4d00c9
:104a00001c003b0089027800354dba000a05e80019
:104a1000020039003420ec000af0a0008b05e90008
:104a20000f003200254dba000a05e80002003900e7
:104a30003420ec000af0a0008b05e90008003200e9
:104a40000c00e0000600320015cdba000a05e800af
:104a5000020039003420ec000af0a0008b05e900c8
:104a60008984e80054a0b4000b00e000e2ff3a00a3
:104a7000000006009902ba00055d78008b05e90088
:104a8000f7ff3200c82ade00055d78008b05e900db
:104a9000f3ff32000c00e000f1ff320019ddba0034
:104aa000eeff37000000fa000028a9000080fa009d
:104ab00000400600801f78000000fa0009c8a90025
:104ac000008080000050a000008088000080fa0074
:104ad0004f00780000400600801f78000000fa00b8
:104ae00009a8a900008080000050a0000080880074
:104af0000080fa004f00780000400600801f780018
:104b00003200f8003400f80010002000a0018800f6
:104b10001000200000d0fe000000fa00906080002d
:104b2000109388000bc8a9000080fa003400f90037
:104b30003200f9004f00780000400600801f780026
:104b40003200f8003400f80010002000a0018800b6
:104b50001000200000d0fe000000fa00a0608000dd
:104b6000209388000be8a9000080fa003400f900c7
:104b70003200f9004f007800004006003600f800cf
:104b8000809fbe00829fbe00849fbe00869fbe00a5
:104b9000889fbe003200f8003400f80010002000aa
:104ba000a00188001000200000d0fe000400fa00e0
:104bb00060608000e09288000b68a900730c070019
:104bc000c185800070bb2000808f500003003e0034
:104bd000c08580000000e800c0858800aed0bf001e
:104be000b3f0b700afd0bf00b4f0b70011938000ae
:104bf000209380004006b000808f500003003600f4
:104c000010c0b300aef0b70006003700219380005b
:104c1000109380004006b000808f500001003600e5
:104c2000ae70ef00d08580000000e800d0858800dd
:104c3000f09280006101b800f0858000018680005c
:104c40000200400083804800f085880001868800cb
:104c5000d0858000e10f500006003600b3d0bf00c1
:104c60000004e00003003a00aed0bf000004e00002
:104c700004003a00d1858000c05d2000808f500084
:104c80000c003600d08580000001e900f48580002a
:104c900005868000048fbe001e02be0005000900cc
:104ca00042aad800e0858800be30ef00c030ef0097
:104cb000ba30ef00008080000000e00012003200f7
:104cc000a2d0bf000004e00085013200234ea800fe
:104cd000a270ef005a8ea9000823ef0010002000f8
:104ce000a01a88006430ef006630ef006030ef00fb
:104cf0006230ef0031a3a8003183a8003263a9001d
:104d00003243a900760137008281800093818000c0
:104d10001035200001002000800f5100818f5900c4
:104d200069013400aed0bf000004e000160032007c
:104d3000b2838000c3838000700220000100200045
:104d4000800f5100818f59000f003c00afd0bf0091
:104d50000004e0000c003a00b0d0bf000004e00006
:104d600004003a0031a3a8003183a80023aea900b3
:104d7000238ea90010c0b300b1f0b70010c0b3007b
:104d8000aff0b70056003700aed0bf000004e0001f
:104d90001c003a00b2838000c3838000800720009b
:104da00001002000800f5100818f59001500340050
:104db000afd0bf000004e0001200320031c3a900f0
:104dc000b0d0bf000004e00007003a008ed0bf0062
:104dd000e24f500002003a0031a3a9000100370061
:104de00031a3a8003183a80010c0b300acf0b70015
:104df00010002000c0858800b170ef00af70ef0098
:104e000037003700aed0bf000004e00016003a00c3
:104e1000b2838000c3838000700220000100200064
:104e2000800f5100818f59000f003c00afd0bf00b0
:104e30000004e0000c003a00b0d0bf000004e00025
:104e400004003a0031a3a8003183a80023aea900d2
:104e5000238ea90010c0b300b1f0b70010c0b3009a
:104e6000aff0b7001e003700aed0bf000004e00076
:104e70001b003200b2838000c383800080072000c3
:104e800001002000800f5100818f59001400340070
:104e9000afd0bf000004e0001100320031c3a80011
:104ea000b0d0bf000004e00007003a0031a3a80022
:104eb0008ed0bf00e24f500002003a003183a900bb
:104ec000010037003183a80010c0b300acf0b70078
:104ed00010002000c0858800b170ef00af70ef00b7
:104ee000b0d0bf000004e0002c003a00acd0bf00fe
:104ef0000004e00029003200c0858000eb0f500064
:104f000025003e00aed0bf000004e00003003200e8
:104f100031a3a8003183a900020037003183a80023
:104f200031a3a90022838000338380002083800086
:104f300031838000ca0add004604de000884720066
:104f4000c68cde000800510089805900208388004b
:104f500031838800c0858000e60f500004003e00c9
:104f6000c08580004800dd0040188800030037003d
:104f7000c08580004a00dd0040188800411880008c
:104f800040838000808f50000400360040012000e4
:104f9000c085880001003700ac70ef00a10d210032
:104fa0009140780010c0b300eacf500001003e00ed
:104fb0000040eb008140e80081417800a20d210013
:104fc000034978000004e00008003200afd0bf00c1
:104fd0000004e00005003a00b6d0bf000004e00085
:104fe00002003a00320c0700da70ef000283800002
:104ff000138380009000200001002000800f5100ea
:10500000818f590008003c00b0d0bf000004e000d0
:1050100005003a008ed0bf00e24f500002003a0077
:1050200010c0b300b2f0b700b2d0bf000004e0007f
:105030000f003200b270ef0010c0b300b0f0b70044
:1050400031a3a8003183a80023aea900238ea900b4
:10505000a000200001002000008388001183880048
:105060006430ef006630ef0010c0b300b6f0b70058
:10507000b0d0bf000004e00009003200b3d0bf0090
:10508000e14f500006003a00aed0bf000004e0003f
:1050900003003a00b5d0bf000040e800b5f0b7000b
:1050a0001284800023848000a0e9200001002000f9
:1050b000800f5100818f59000300340010c0b300ed
:1050c000b7f0b700160037001284800023848000f8
:1050d00030e5200001002000800f5100818f590031
:1050e0000300340040002000e08688000c003700f8
:1050f0001284800023848000c0e020000100200092
:10510000800f5100818f59000300340020002000df
:10511000e08688000200370010002000e08688004a
:10512000b5d0bf008080fb00e0868000808f5000fb
:1051300004003600b070ef00b570ef00b670ef00fd
:10514000b770ef00afd0bf000004e0005b003a0092
:10515000b6d0bf000004e00058003a00328480005e
:1051600043848000808f210001002000800f5100c7
:10517000818f590005003e00908f21000100200022
:105180001086880021868800040037003084800063
:105190004184800010868800218688009dd0bf0051
:1051a0000080fb0080004000e028210000804000db
:1051b000100078004301dd0000838000118380002f
:1051c000000078000200b800008288001182880088
:1051d0001086800021868000000178000082800017
:1051e000118280000002be00048fbe001e02be00bd
:1051f0000500090042aad8008000eb000082880068
:105200001182880002828000138280002082800048
:1052100031828000800f5100818f590004003400da
:105220002082800031828000008288001182880004
:10523000230c070020838000318380000000780069
:10524000410d23000100b800c10add004f00de005f
:1052500000807200cf08de000000780040838800e4
:105260004183800030e62200808f5000020036002b
:1052700030e6220040838800b1d0bf000004e00087
:1052800005003a00acd0bf000004e00002003a0084
:10529000408380004018880040188000e20f5000d2
:1052a00004003600401880000000d100a01a8800d9
:1052b0000200370010002000a01a8800238ea900e9
:1052c00023aea900060037006430ef006630ef001f
:1052d0006e30ef007030ef006030ef006230ef00b2
:1052e000b2838000c38380003006200001002000cc
:1052f000800f5100818f59000c003c00f086800027
:105300000000e800f0868800f1868000000a200096
:10531000808f500006003600de30ef0000808000f5
:105320000060a0000080880001003700de30ef0040
:10533000308180006101b80090838000a1838000eb
:10534000800f5100818f59000d003d00010e21009a
:105350009140780030c6b30080cf500004003e007a
:10536000e0d0bf000040e800e0f0b70005003700e3
:10537000008080000020a00000808800010037002d
:10538000e070ef00f192800050818000808f50002b
:105390000d003600110e21009140780030c6b30098
:1053a00080cf500004003e00e1d0bf000040e80084
:1053b000e1f0b70005003700008080000040a00049
:1053c0000080880001003700e170ef0082818000da
:1053d000938180001035200001002000800f5100d3
:1053e000818f5900280034008ed0bf00e14f50005b
:1053f00014003a004282800053828000001920008d
:1054000001002000800f5100818f59000b003400f3
:10541000210e21009140780070ccb30080cf500065
:1054200004003e00e2d0bf000040e800e2f0b70018
:1054300015003700e270ef0013003700e270ef0054
:10544000110037008ed0bf00e24f50000e003a002e
:10545000f192800040818000808f5000090031006f
:10546000310e21009140780070ccb30080cf500005
:1054700005003e00e3d0bf000040e800e3f0b700c5
:1054800001003700e370ef000080fa003400f900fb
:105490003200f9004f04be004f03be004f02be00b1
:1054a0004f01be004f00be003600f900004006006c
:1054b0000040da000000fe00000005000001be0010
:1054c0001b0007000470a70003f0a10003f8a3006d
:1054d00013003a006509b1001000320009003500e0
:1054e0006928e100020035000100280000000500e5
:1054f00000004000818048008502e900fcff3a007e
:1055000000000600f88f4200050035008100d10040
:105510000080d3008502e800fcff3a00000006008e
:105520008000eb00000005006011b8002701370083
:10553000c70ade00f107b200f50fb2000800320022
:10554000e1cf4200020032000170a00024000500fb
:10555000810f7000010032000408050044000500be
:10556000810f700002003a00140005008502e90076
:105570000000400081c04800fcff3b000170a0001b
:10558000240005006022b800060220000000d000c0
:105590008180d2000482d2008582d2000000a00067
:1055a0000202520083825a000300310002024200cc
:1055b00083824a000000a1000603e900f3ff3a00dd
:1055c000000006000383680007002800070363004b
:1055d000470ade000480a100c71ade000580a10092
:1055e000f70f20000720e100420032000728e10009
:1055f00040003200889fbe008a9fbe008c1f78004a
:10560000f107b200f307b2000400e00064003200ca
:105610000170a0000500e000680032000370a000e7
:1056200085054200eb07b1000204b8000302b80090
:105630008484440060854a00020ab80084844400df
:105640000a854a00030ab800040545000400330037
:105650000804d0008984d2000a85d2008b05e900b5
:105660006158e1003d003500021020000901610091
:105670000308200089816100f70720008783640008
:1056800008867300c84cde00c853dd0087847400b0
:105690004855de000300e000060032008203760079
:1056a000040032008904e80060054d000a88a30068
:1056b0000c003a00f70f20000758e10044003d00bd
:1056c0000a70a100c75ddd000a8575008a007300bd
:1056d000090078004f0678004f05be004f04be0059
:1056e000000006000a05d1008984d3008b05e8007c
:1056f000f0ff3700881f780006047800900007004c
:10570000070278000001fd008101fd008c00070008
:1057100087027800850372000778a3000500320035
:105720000001fd008101fd009f0007004f0478008b
:1057300000000600850372000748a3000300320042
:10574000f0ff2f00f1ff2700f8ff370000002000d6
:1057500001f8270088807000f4ff37008801780086
:105760004848dd00808171004848de00c850dd00f7
:1057700001007000c850de00060478000b017800bc
:105780001600070088807000d2ff37000500e00097
:1057900005003200170020003a0007009dff370087
:1057a00081037000f9ff3a00860078004f06780008
:1057b0004f05be004f04be000000050083037100ca
:1057c000f9ff3200270020002e00070094ff370069
:1057d00001f8270086807000f4ff37000100e00028
:1057e00026003200610111007810e10023003c0026
:1057f0006022b8007010e1000400350080027800db
:10580000010078008000eb00700151000200e00010
:105810000900340070031100062add00822ade0030
:105820008603dd00878272000200de00860bdd0049
:10583000070070008208de0084817100f4ff2700f9
:105840000482620084817100040028008482620066
:105850006102600005f0a6000000060004827100ed
:10586000070032000000e800e08048000000060069
:105870000002be006000b800efff37006000b80013
:1058800000000600889fbe000004eb006138e100c4
:1058900016003a000100e00008003a00c800de00ef
:1058a0004800dd00880020000100e00003003a000d
:1058b000c800de004800dd00680444008184cf0099
:1058c000e9845400060034008908dd00f0831400e8
:1058d0008703de00878070000900dd0009044400b2
:1058e000610214004f04be00000006000300e00047
:1058f00008003a00c811de004811dd0088002000d1
:105900000300e00003003a00c811de004811dd008a
:10591000680444008384cf00e98454000600340006
:105920008919dd00f08314008713de008781710080
:105930000911dd0009044400e1021400e9ff370009
:105940002700200001f0a70017002000470bde0011
:10595000f60fb200040032000643e8000a003200ed
:105960004702b3000000060001037800f607b2000a
:105970000603700002003a000703b30000000600af
:105980008702b3000000060001037800f607b200aa
:1059900006037000020032000770a000000006003d
:1059a0000760a000000006000478a3000400320095
:1059b0000578a300030032000168a30001003a004b
:1059c0000200be000160a00000000600889fbe002b
:1059d0008a9fbe0000827000040271000482710080
:1059e000260032000004be000200be006011b800b4
:1059f0006b092000950220000182cf000a003900c7
:105a00000541b1000082cf00070039000541b10017
:105a10000982cf00040039000541b1000882cf009f
:105a2000010039000541b100054252001200320068
:105a30000a003b0082817100610164008100d10095
:105a40000080d3008984d3000884d3008b05e8004c
:105a50000442e800f7ff3a0007003700080444005a
:105a600089844c0000004800818048008b05e900d3
:105a70000442e900f9ff3a00030007004f05be00a9
:105a80004f04be0000000600810020006180550028
:105a90000b003d000b00200061fe2f000100e10023
:105aa0001d00340082817100610164008904d1000d
:105ab0000884d3000000e800faff3a0071002000db
:105ac0006100640003007000020060000900320001
:105ad00061044400e0844c000988a5000500320000
:105ae0008b05e8006808e10002003a008904d10053
:105af0000884d300f20f20000258e10005003d00a9
:105b0000c75ddd00f907b2008980750008007800e4
:105b1000000006000bf827008b007800000005004d
:105b2000889fbe008a9fbe008c9fbe000004be00fe
:105b30000400200005f82700858360000403780036
:105b4000840f5300858f5b0007003a000801be00f8
:105b50000800be009bfe07000001be000800be005a
:105b60008400070010003700e00f5000e08f58005d
:105b70000f003c008101780003f0a10000017800d3
:105b8000e00f5100e08f59006a003200100220003f
:105b9000909c88000801be000800be006c00070051
:105ba0000001be00580107000004be00610037007c
:105bb000478cde00cf8cde00e00f5400e08f5c00ed
:105bc0000f003a006044b8000400370000004000b5
:105bd0008180480061044400e0844c0004002000ff
:105be000050820008181620004017800e00f510067
:105bf000e08f5900f5ff320061041400e0841c00be
:105c0000f807b1000980b10081017800f307b20004
:105c1000000178000200be000170a0000808a30087
:105c20000200320000004000818048008984d100d9
:105c30000884d300000040008180480094012000c7
:105c400002002000031020006055b8006066b80014
:105c50000c0341008d834900800f5300818f5b004e
:105c600006003c00060641008786490006005000f9
:105c7000878058000a0541008b85490000004000dc
:105c8000818048008301d1000281d3000402e90031
:105c9000efff3a00e00f5000e08f58001b00320089
:105ca0000226240023da20000000200001f823004f
:105cb000270007000200200003f82300220007004d
:105cc0000000e000110035000226240023da200045
:105cd0000000200001f82300260007000200200039
:105ce00003f82300180007000000e0000300340060
:105cf00062054500e0854d00040037006000b800f3
:105d0000610065000005450081854d00c744dd0048
:105d1000080020000000200001f0230008044000db
:105d2000898448008b85d1000a85d300080445008a
:105d300089844d000800be004f06be004f05be001e
:105d40004f04be0000000600f4ff2f00530237008e
:105d500007f82700078361000638e10004003a00d5
:105d6000f7072000878361008703710001003a0074
:105d700003f0a200889fbe008a9fbe008c9fbe00d9
:105d8000470ade000480a100c71ade000580a100da
:105d9000070028000785600087856100f70f200055
:105da0000720e1009e0032000728e1009c0032003d
:105db000010678000400e000b4003200f70720007c
:105dc000878060000170a0000500e000c000320084
:105dd000f7072000878161000370a00005065200cc
:105de0000f003a000b50e1000b0032000308e10005
:105df00002003a000200e1007e003200020450007e
:105e000083845800040031000001fd008101fd0081
:105e10008402fd008a05fd006044b80021003700bf
:105e20000520e10005003d000001fd008101fd00ad
:105e30008402fd008a05fd00050652007a60e1003b
:105e4000050035000170a1004722dd00848070004c
:105e50008a807000630037006044b800ef0266007b
:105e600007ff2f00070666000500e000060034006b
:105e7000f08312008714dd000511de00071bdd0032
:105e8000060171008519de007060e1000500350033
:105e90000904780082047800030178008001eb0097
:105ea000700656000b50e10003003a00020040006b
:105eb000838048000400370060041400e0841c0064
:105ec00002005800838058000188a30006003200b9
:105ed0008100d1000080d3008984d3000884d300de
:105ee0000402e800270037000178a30025003a00eb
:105ef0000100e000030032008186cf006986560071
:105f00000a0037008c0020000000e00004003a0086
:105f100009007800880478000004eb007002520049
:105f20008086cf000d0646000c06e9007060e10097
:105f300006003500800078000900780088047800a9
:105f40000004eb0070065600700252000c00e000e6
:105f50000c0034008c08dd00f00316000703de009f
:105f6000868070000c00dd00074bde00060070002c
:105f70008c4cdd000743de00868474000c44dd0099
:105f80000c0252006120e100200035006101600038
:105f90000700280087816400f7ff270087836400db
:105fa000070374000300e000060032008203730060
:105fb000040032000000e800e08048000188a300ef
:105fc0000e003a00f70f20000720e1004a003d00d4
:105fd0000170a1004722dd00810072008a807000fc
:105fe0000000be004f06be004f05be004f04be00bd
:105ff000000006006000b800faff37008100d10001
:106000000080d3000402e800eeff370004017800ae
:1060100089017400f1fd07008a807000f1ff3700ec
:1060200047fe0700070278000001fd008101fd0026
:1060300043fe070087027800850372000778a300fb
:10604000040032000001fd008101fd0056fe070042
:10605000e4ff3700850362000768a30008003200f0
:106060000b50e10003003200f0ff2f00f1ff27008a
:10607000dcff37000001fd008101fd00d9ff370082
:106080000468a300d7ff3200faff3700f8ff2700ab
:10609000888360000b003a000000e00009003a002d
:1060a0008303640082837300020032000200be009a
:1060b000ccff37000b50e100ceff3a000200be00db
:1060c000c8ff370014002000810064003eff370045
:1060d000f8ff27008883610004003a000200e00016
:1060e00002003a008c007800beff37001500200047
:1060f0008301640039ff370001f827000000200009
:1061000081007500b7ff3700889fbe008a9fbe00e0
:106110008c9fbe001b0020000202be0005866800a6
:1061200006002800060666004709de00f20fb200ee
:10613000820032000243e80080003200c729de00fe
:10614000f30fb2007d0032000343e8007b00320011
:10615000f107b2000170a000f507b2000570a000c1
:10616000c708dd004903de00868070004700dd00bf
:10617000c72add004923de00868272004722dd0047
:1061800003055100040350008583580003003100cb
:1061900000004000818048000a05e9008c1f78005b
:1061a0008a9fbe000400500085805800040242000f
:1061b00085824a0000004000818048000005eb0015
:1061c0000004be006033b8000406be000d48e100c4
:1061d00056003100050009004dccd8000c01b80074
:1061e0000d02b8008481410060824a00828353001e
:1061f00003045c0084845c0060055d000a00e0002c
:1062000025003a00800578000d40e100490031008a
:106210008800780007007800050009004d88d80044
:106220000c01b8000d02b8008481410060824a0070
:106230006003110083835b0004045c00e0845c0065
:106240000900e00021003a004f01be000300e00019
:106250002b003200e3016000070673008c8171009f
:1062600001003200640070004200de004e5edd007e
:106270000c007000c258de0001e0a00081000700a1
:10628000cf017800818071004f06be004f05be002f
:106290004f04be00000006008c8343000d044c0038
:1062a000e0844c0060054d000000e9000a00e000b9
:1062b000d4ff32008c8343000d044c00e0844c007a
:1062c00060054d000000e900ceff37000c034300dd
:1062d0008d834b0060044c00e0844c000000e9001a
:1062e0000900e000d8ff32000c0343008d834b000f
:1062f00060044c00e0844c000000e900d2ff37004d
:106300004200de004e5edd000c007000c258de0070
:1063100001e0a000cf0178000300e000daff3200c6
:1063200060001000e0801800d7ff3700f0ff2f005a
:10633000aaff3700f0ff2f00b9ff37000404be00aa
:106340007ffd0700870678000004fd008104fd0042
:106350007bfd0700078366000678a3000300320078
:106360000960a7000800be002c0037000d78a300cc
:10637000020032000800be00280037000778a300a2
:1063800026003a0001f0a10009f0a1000668a30070
:1063900003003200f1ff2700f0ff2f00baff3700a3
:1063a0000d68a300030032000800be008c8070005e
:1063b000b5ff37000768a30007003a000648a300ae
:1063c00003003200f1ff2700f0ff2f00aeff37007f
:1063d0000d48a300030032006000b8008c807000fc
:1063e000a9ff37000748a3000400320001f8270086
:1063f000000020008c807000a3ff370074000700ad
:106400000004fd008104fd00020578007000070013
:106410000802be008a01780059ff37000160a00021
:10642000120220003288880097ff37000100e00048
:10643000120032000500e00010003200889fbe000c
:106440008a9fbe008c9fbe000006eb0001f8a300ef
:106450000300320060001000e08018000cf0a00083
:1064600005f8a3000300320060021200e0821a0067
:106470000cf0a2008005eb0041ff37006000b8007f
:106480000200050081017000270032008002eb004d
:1064900001f8a3000300320060001000e080180043
:1064a00015002000f4072000020242002000340002
:1064b000f703200087036000060420000003630048
:1064c00002082000000161004700de00c909dd006c
:1064d00000807100c708de000600e00008003200fe
:1064e00087037100060032001000b0000180b00088
:1064f0000188a30002003200c108de000402e800a7
:10650000f107b200f30f20000320e10003003d007b
:106510004722dd00810072002900370001f82700c2
:106520000000eb00260037006000b8000000060005
:10653000680212007f20e100020034006000b80011
:106540001f0037006011b8007020e1000400350022
:1065500080017800010078008000eb00700252009a
:106560000400e00009003400f00312000719dd0008
:106570008419de000703dd00868171000400de005f
:10658000070bdd00060070008408de00f7ff27001f
:106590008383630087037100060028000303630000
:1065a000070032000700e00003003a0061016000cc
:1065b00002817300020032001000b0000180b000c0
:1065c0000500a6000000060001f0a0000000060083
:1065d0004f0ade004709de00f107b200f20fb200f9
:1065e0000b003200f207b1000170a000c708dd0007
:1065f000c901de00838070004700dd000400a600b2
:106600000000060060001000e08018000000060096
:10661000810f700001003a00000006008182cf0067
:106620000500e00010003e008082cf00ee824200b4
:106630007028e1000400390007003e008000780067
:106640000000eb000e003700708312008600de00b1
:106650000500dd000a003700708352008600dd006f
:106660000000eb0006003700e28252008508dd00e2
:10667000708312000603de00868070000500dd00d6
:106680007507b0000501ea000400a600000006003e
:1066900060001000e080180000000600889fbe0027
:1066a0008a9fbe00841f7800170007004f00780003
:1066b00011003300f0ff2f00838f6c0006003b00b9
:1066c000040565000a00a7000800370009f0a600cd
:1066d0001000200008003700820f5400838f5c00f8
:1066e000030039001000200001003e0000002000df
:1066f00009f0a7000000ea004f05be004f04be00ed
:106700000000e000000006000004be0088fb070057
:106710000003be000405be000200be0084fb0700ab
:08672000844f75000000060023
:020000040000fa
:020000040001f9
:106728000200fa00889fbe00007c800080848800f8
:10673800802fef0011028000000e20000100700081
:1067480010028800f0ff2000014020000100b8007e
:10675800821f21000300200088fb0700000078004a
:10676800a0808800801f2100014020000100b8009f
:10677800f2ff20000300200080fb070000007800e3
:10678800b0808800f0ff2000014020000100b80020
:10679800422e21000300200078fb0700000078004b
:1067a800c0808800402e2100014020000100b80070
:1067b800f2ff20000300200070fb070000007800b3
:1067c800d0808800f0ff2000014020000100b800c0
:1067d800426520000300200068fb070000007800e5
:1067e800e080880040652000014020000100b800da
:1067f800f2ff20000300200060fb07000000780083
:10680800f0808800a1808000400021000100b800cd
:106818004609dd004a00de0000007100ca08de00fb
:106828000000780000818800c180800000192000e5
:106838000100b800c609dd004a00de0000807100d2
:10684800ca08de000000780010818800c18080003e
:1068580000af20000100b8004609dd004a00de0054
:1068680000007100ca08de0000007800208188005e
:10687800e1808000201c20000100b800c609dd006e
:106888004a00de0000807100ca08de0000007800bf
:1068980030818800a1808000201621000100b80006
:1068a8004609dd004a00de0000007100ca08de006b
:1068b8000000780050818800a18080002016210007
:1068c8000100b800c609dd004a00de000080710042
:1068d800ca08de000000780040818800e18080005e
:1068e800400620000100b8004909dd004700de002d
:1068f80000007100c708de00000078006081880091
:10690800e1808000601d20000100b800c909dd0099
:106918004700de0000807100c708de000000780034
:1069280070818800317c800000fc2f0000806000ae
:106938000000a000307c8800a1052000b0210a00da
:10694800880f0000517c8000f0f82f000080600064
:106958000050a000507c8800517c800080ff2f00f0
:10696800008060000000a000507c88001200200019
:1069780080072000a109200053f8200080497800f2
:106988008149780082497800207c800000017800e5
:106998000200a000600420007105200043f82000d8
:1069a8008049780081497800824978000000000019
:1069b800207c8000610060000000e000fcff3a00dd
:1069c80000000000217c80000002200000806000a0
:1069d8000000e000fbff32008f0fa800717c8000f0
:1069e80000fc2f00008060000000a000707c880080
:1069f800d2072000b0220a00900f0000917c80008e
:106a0800f0f82f00008060000050a000907c880003
:106a1800917c800080ff2f00008060000000a000b3
:106a2800907c88008fefa8001c8ea9001e8ea900fc
:106a38003aaea9003aeea900568ea9001f4ea90049
:106a48001f8ea9001faea900566ea8003b4ea900d4
:106a5800554ea9000000eb0053052000b3468800fe
:106a6800a30a2000b346880000688800b0c3b300ba
:106a780028edb700d16c800000fc2f00008060007a
:106a88000000a000d06c88000000280051052000fc
:106a9800b1468800a10a2000b14688000068880035
:106aa800d1118000f09f2f0000806000d011880075
:106ab80039e2a80090242000001288003882a8003b
:106ac80038a2a80051588000f0ff23000080600021
:106ad80000f0a0005058880051588000f00f2c009a
:106ae8000080600050588800b15e800000f82f00d8
:106af80000806000b05e8800d15e800000f82f0042
:106b080000806000d05e88002158800000f82f00c7
:106b180000806000205888002203200090220a008c
:106b2800060b00007158800030ff2f0000806000c5
:106b38000020a00070588800015c800000fe2f0033
:106b4800008060000020a000005c8800015c8000dc
:106b5800f00f2e000080600000a0a000005c8800fc
:106b6800115c8000f00f2e000080600000a0a000e3
:106b7800105c8800215c800000fe2f00008060000f
:106b88000020a000205c8800615c800000fe2f00cf
:106b9800008060000000a000605c8800200ba80056
:106ba80061438000f0ff280080806000000026001c
:106bb80001007000604388000b68a9002b68a800da
:106bc800206ba8000bc8a9002bc8a800208ba80020
:106bd8000be8a9002be8a8001160800000f0200055
:106be800010070001060880001eba800000ca800ec
:106bf800000000000160800000102000008060009c
:106c08000000e000fbff32000a0ba800002ca800df
:106c1800000000000160800000202000008060006b
:106c28000000e000fbff32000a2ba80000eca800df
:106c38000000000001608000000028000080600063
:106c48000000e000fbff32000aeba80008cba80018
:106c580081eca80001648000f0f32f000080600040
:106c68000070a0000064880050052000206488009f
:106c7800a00820003064880099eca800c164800056
:106c8800f0ff29000080600000e0a000c0648800d8
:106c980050192000f064880081eca80009c8a900f8
:106ca80029c8a80089eca80041648000f0ff2900e9
:106cb8000080600000d0a00040648800416480002b
:106cc80070fc2f00008060000030a0004064880045
:106cd800b0e620007064880081eca80009a8a9002b
:106ce80029a8a800001880003000b3000018880008
:106cf800a00f2000e01a8800a00f2000d01a8800fa
:106d0800400d2300501888000823ef0010002000d1
:106d1800a01a88004c23ef0000802c00601988001e
:106d2800900020005019880080112000a0198800c8
:106d380031a3a8003183a8003263a9003243a90017
:106d48002be3a80000802000a01f8800f023ef009c
:106d5800611e800070fe2f00008060000030a000df
:106d6800601e8800b11e800070fe2f000080600049
:106d78000030a000b01e8800a11e8000f0fc2f008b
:106d8800008060000040a000a01e8800d063a8001a
:106d9800d3a3a900d383a800d463a800cde3a80097
:106da80000802000f01d8800ba23ef00b11c80008d
:106db80070fe2f00008060000030a000b01c88002a
:106dc800011d800070fe2f00008060000030a000d0
:106dd800001d8800f11c8000f0fc2f00008060007e
:106de8000040a000f01c88009a63a8009da3a90099
:106df8009d83a8009e63a80097e3a800409c2000fc
:106e080060268800602680000000d10040268800a7
:106e18002125800070fe2f00008060000030a00057
:106e2800202588007125800070fe2f0000806000fa
:106e38000030a0007025880061258000f0fc2f003c
:106e4800008060000040a00060258800a864a800b9
:106e5800aba4a900ab84a800ac64a800a5e4a80072
:106e6800c1e8a900c3e8a80001088000f0cf2f00fe
:106e7800008060000080a000000888008043200097
:106e88004008880001428000f0f82f000080600070
:106e98000050a000004288000028a9002028a8006f
:106ea80001e1a800a14b8000f08f2f000080600056
:106eb800a04b88007489a90074a9a800a14b800080
:106ec80000ff2f0000806000a04b8800b14b8000bd
:106ed80000fe2f0000806000b04b880010002000ea
:106ee800504c880000f92500404c88000308a90090
:106ef80075e9a8000080800000f0a00000808800ec
:106f080010c0b3000bf0b7003eeea9003eaea900da
:106f180011028000f0f12f0000806000100288004c
:106f28009e63a9000300370000000000010037003d
:106f380000000000234ea900805980006200600014
:106f48000000e0000d003200302ba90070608000c6
:106f5800f0928800f09280006101b80010848000ef
:106f68002184800002004000838048008180d10095
:106f78000080d30010848800218488008159800013
:106f880000002100008060000000e00004003200e2
:106f9800318ba900206180004200de00a0938800a8
:106fa8000140800000002100008060000000e00037
:106fb800130032000ed0bf00e14f500010003a001d
:106fc8000188a9000cd0bf008080fb006227210047
:106fd800810041009140780001417800832420001d
:106fe800824978000040e8000cf0b7000cd0bf00e0
:106ff800eb4f5000020036000c70ef000e70ef00ef
:107008000140800000802000008060000000e00057
:10701800100032000168a9000dd0bf00e34f5000f6
:107028000a003e000dd0bf000080fb004124200074
:107038009140780052282100000041000148780062
:107048000dd0bf000040e8000df0b70050c0b300fd
:1070580012f0b700410e210091407800e5d0bf0042
:1070680080cf500020003100e4d0bf008080fb00ba
:10707800e5d0bf000080fb00008040000080d10008
:1070880000407800e6f0b700610e210091407800da
:1070980090cab30080cf50000200360090cab300f7
:1070a800e6f0b700e6d0bf000080fb00800040009b
:1070b8008010210000804000900078004087800008
:1070c800808f500004003600e6d0bf000040e90081
:1070d800e5f0b7000c003700e6d0bf000040e8003c
:1070e800e4f0b70008003700e6d0bf000080fb00de
:1070f80090848800e470ef0090cab300e5f0b70010
:10710800a093800040878800114080000010200074
:10711800008060000000e00083ff32000308a9003f
:1071280008cba80032848000438480004918dd0021
:10713800c710de00810070004910dd00f8f8070074
:1071480075fa07000004be00d08080008000eb00c4
:10715800f3f807000001be000800be0017f9070099
:10716800d4f80700c609dd004a00de00008071007f
:10717800ca08de0000007800308088005284800051
:10718800638480004918dd00c710de0081007000ac
:107198004910dd00e2f807005ffa07000004be00ae
:1071a800f08080008000eb00ddf807000001be00e1
:1071b8000800be0001f90700bef807004609dd0017
:1071c8004a00de0000007100ca08de0000007800f6
:1071d80020808800f09280006101b800508780000c
:1071e8006187800002004000838048005087880043
:1071f80061878800f192800070878000808f50003e
:1072080002003600f092800070878800f1928000ba
:1072180080878000808f500002003100f09280004b
:1072280080878800f2d0bf000040e800f2f0b70085
:10723800210f21009140780020c2b30080cf500078
:107248001f003a00f270ef005287800063878000c9
:10725800708780008000eb00000151008181590097
:10726800808780008000eb00000051008180590079
:10727800cb09dd004500de0000807100c508de0096
:1072880000007800a0878800b1808000a087800077
:107298000100b8004609dd004a00de000000710068
:1072a800ca08de000000780010808800ea30ef008d
:1072b800ec30ef00ee30ef00f0ff20008087880010
:1072c800908480006101b800b0878000c187800089
:1072d8000200400083804800b0878800c18788008a
:1072e800d187800090848000808f50000200310098
:1072f80090848000d0878800e18780009084800097
:10730800808f50000200360090848000e08788005b
:1073180004d1bf000040e80004f1b700411021008b
:107328009140780020c2b30080cf500016003a0088
:107338000471ef00b2878000c3878000d087800087
:107348008000eb000001510081815900e087800036
:107358008000eb000000510081805900cb09dd005e
:107368004500de0000807100c508de00004078009e
:107378000af0b700f630ef00f830ef00fa30ef000f
:10738800f0ff2000e08788000bd0bf000004e00079
:1073980002003a0000808000008088001180800090
:1073a800c00c2100808f50000d003600e10f210035
:1073b8009140780030c6b30080cf500004003e00f2
:1073c800fed0bf000040e800fef0b700050037001f
:1073d800008080000040a000008088000100370085
:1073e800fe70ef0011808000f0c72000808f5000f1
:1073f80010003e008ed0bf00e24f50000d003a0052
:10740800f10f21009140780030c6b30080cf5000c2
:1074180004003e00ffd0bf000040e800fff0b700c6
:1074280005003700008080000030a0000080880040
:1074380001003700ff70ef0021808000e015200078
:10744800808f50000d003600011021009140780017
:1074580070ccb30080cf500004003e0000d1bf00c4
:107468000040e80000f1b700050037000080800008
:107478000020a00000808800010037000071ef00a4
:1074880031808000f0312000808f50000d003e00d8
:10749800111021009140780070ccb30080cf5000cb
:1074a80004003e0001d1bf000040e80001f1b70030
:1074b80005003700008080000000a00000808800e0
:1074c800010037000171ef0031808000c0a8200062
:1074d800808f50000d003600211021009140780067
:1074e80070ccb30080cf500004003e0002d1bf0032
:1074f8000040e80002f1b700050037000080800076
:107508000010a00000808800010037000271ef0021
:1075180041808000a0282000808f500004003e0099
:1075280041808000101c2000808f50000d003e001c
:10753800311021009140780070ccb30080cf50000a
:1075480004003e0003d1bf000040e80003f1b7008b
:1075580005003700008080000070a00000808800cf
:10756800010037000371ef00008080000000e00098
:107578007d0032003030ef003230ef00a281800011
:10758800b381800070bb200001002000800f5100f3
:10759800818f590006003c00a0818000b1818000e5
:1075a80061004000e0804800a0818800b181880027
:1075b800a2818000b381800010002000010020001b
:1075c800800f5100818f590005003a005a8ea9009a
:1075d8000080800000f0a000008088008e70ef001e
:1075e800a2818000b38180002000200001002000db
:1075f800800f5100818f590011003a00234ea800d6
:107608000823ef0010002000a01a88006430ef0063
:107618006630ef006e30ef007030ef006030ef0042
:107628006230ef0031a3a8003183a8003263a900bb
:107638003243a900238ea90023aea900a270ef004f
:10764800a2818000b381800040002000010020005a
:10765800800f5100818f590002003a003eeea900c8
:107668003eaea900a2818000b381800070bb2000db
:1076780001002000800f5100818f5900a4003400c0
:107688003180800020352000808f500003003600b4
:10769800008080000000a100008088003180800008
:1076a80090a52000808f500003003e0000808000dd
:1076b8000010a10000808800008080000020a10048
:1076c80000808800008080000030a10000808800d1
:1076d80011808000b00c2100808f500003003e0014
:1076e800008080000040a1000080880000808000a9
:1076f8000050a10000808800008080000060a10088
:10770800008088004180800090282000808f5000f1
:1077180007003e0041808000201c2000808f500020
:1077280003003600008080000070a10000808800ff
:1077380011d0bf000004e000020032000080800089
:10774800008088000bd0bf00e14f500002003a00d3
:1077580000808000008088000080800000f0a10088
:10776800008088006a0037003430ef003630ef00c0
:107778008281800093818000b05d2000010020009c
:10778800800f5100818f590006003c0080818000e5
:107798009181800061004000e0804800808188007d
:1077a80091818800828180009381800000322000ce
:1077b80001002000800f5100818f590002003a001b
:1077c8003eaea8003eeea800828180009381800032
:1077d800803e200001002000800f5100818f590059
:1077e80001003a003eaea9008281800093818000aa
:1077f8002035200001002000800f5100818f5900a2
:1078080019003a00f09280008000eb00c0818800e7
:10781800d1818800008180006101b800c0818000aa
:10782800d1818000800f5100818f590004003d00f4
:10783800008180008000eb00c0818800d181880031
:1078480010c0b3008ef0b700608180008000eb00ac
:1078580020828800318288003263a8003243a80061
:1078680010c0b300a2f0b70082818000938180002d
:107878002035200001002000800f5100818f590021
:1078880018003400008180006101b800c0818000c8
:10789800d1818000800f5100818f5900070034008a
:1078a800c0818000d18180006a004000e0804800eb
:1078b800c0818800d18188000a00370000818000db
:1078c8008000eb00c0818800d18188007081800031
:1078d8008000eb00208288003182880020c0b3003d
:1078e8008ef0b700008080000000e00008003a0039
:1078f8008281800093818000b05d2000010020001b
:10790800800f5100818f5900010034005a8ea80061
:1079180010d0bf00e14f50004f003a001070ef0048
:107928006027210080c0eb00014878007027210003
:1079380051c5b30001487800008080004800de008f
:10794800804078008027210001487800008080006e
:10795800804078009027210001487800308080001e
:107968004800de0080407800a02721000148780008
:107978003080800080407800b027210001487800de
:10798800208080004800de0080407800c027210069
:10799800014878002080800080407800d0272100ae
:1079a80001487800408080004800de008040780070
:1079b800e02721000148780040808000804078005e
:1079c800f027210001487800a100210091407800ab
:1079d8000028210001487800802721009040780085
:1079e800902721001040780080c04000a027210087
:1079f8001040780080c04000b02721001040780077
:107a080080c04000c02721001040780080c040009e
:107a1800d02721001040780080c04000e0272100d6
:107a28001040780080c04000f02721001040780006
:107a380080c04000002821001040780000c04000ad
:107a480042c5b30082404000102821000148780058
:107a580010c0b3000ef0b70011d0bf000004e00062
:107a68000400320011d0bf000040e90011f0b70057
:107a780002003700008080000080880012d0bf001c
:107a88000004e0000600320012d0bf000040e90008
:107a980012f0b70010c0b3000ff0b70025fd370093
:107aa8000fd0bf00e14f500021fd3a000f70ef00ea
:107ab8000dd0bf00e44f50001e003a0050282100ae
:107ac80010407800e14f40001a003a006028210079
:107ad8009040780050c5b30080cf500015003a00a0
:107ae8000040eb00004f78005028210090407800bb
:107af800602821001040780080c0400070282100d4
:107b08001040780000cf4000802821001040780005
:107b18009e4f500007003a00a0cfb30011f0b70005
:107b280010c0b30010f0b700702821001040780092
:107b38000bf0b7000d70ef00502821008040eb00db
:107b480001487800602821008040eb000148780057
:107b5800f8fc37000000fa009830ef009a30ef0088
:107b6800ce30ef00d030ef000080fa0000000600b1
:107b78000000fa009430ef009630ef00d230ef00aa
:107b8800d430ef000080fa00000006000400fa007c
:107b9800c0848000d18480000001780004d42000d3
:107ba80035002000048fbe001e02be00050009003b
:107bb80042aad800408088004180800070182000c8
:107bc800808f500001003e000830ef00c084800024
:107bd800d18480000001780074868000858680004a
:107be800048fbe001e02be000500090042aad8008c
:107bf8008000eb003084880041848800c0848000c5
:107c0800d184800000017800b4868000c586800099
:107c1800048fbe001e02be000500090042aad8005b
:107c28008000eb005084880061848800d630ef0023
:107c3800d830ef000080fa00000006000400fa00c7
:107c4800a0848000b18480000001780004d4200062
:107c580035002000048fbe001e02be00050009008a
:107c680042aad80040808800418080007018200017
:107c7800808f500001003e000830ef00a084800093
:107c8800b18480000001780094868000a586800079
:107c9800048fbe001e02be000500090042aad800db
:107ca8008000eb003084880041848800a084800034
:107cb800b184800000017800b4868000c586800009
:107cc800048fbe001e02be000500090042aad800ab
:107cd8008000eb005084880061848800d630ef0073
:107ce800d830ef000080fa00000006000000fa001b
:107cf80032868000438680007086800081868000fe
:107d080002004000838048007086880081868800d1
:107d18005286800063868000b0868000c18680001d
:107d28000200400083804800b0868800c186880031
:107d38000080fa00000006000000fa003286800089
:107d48004386800090868000a18680000200400063
:107d58008380480090868800a1868800528680002b
:107d680063868000b0868000c186800002004000e3
:107d780083804800b0868800c18688000080fa00a9
:107d8800000006000000fa00889fbe0011938000e2
:107d980020938000808f50000900360011938000e6
:107da80020938000008050008000eb00b0838800a2
:107db800c183880010c0b3009cf0b70007003700eb
:107dc8002193800010938000008050008000eb0019
:107dd800b0838800c18388009c70ef00e192800026
:107de800f07f2000808f500007003600e19280006d
:107df80010802f00008040008000eb0090838800f6
:107e0800a183880006003700e0928000f17f2000ff
:107e1800008050008000eb0090838800a1838800d8
:107e2800d2838000e3838000b0838000c183800018
:107e380002004000838048008180d1000080d30088
:107e4800d0838800e1838800f28380000384800067
:107e580090838000a1838000020040008380480056
:107e68008180d1000080d300f083880001848800dd
:107e78009ed0bf000081fb00d0838000e18380009a
:107e88008000780002014100e02821000000410044
:107e9800010878009ed0bf006f4050000074a10018
:107ea8009df0b7009ed0bf000040e8000074a1001c
:107eb8009ef0b700b2838000c3838000b083800047
:107ec800c1838000809ab900828bb900860278004d
:107ed800050242000010b800010242008400780048
:107ee8004709dd004904de0008047100c98cde0082
:107ef8000800be0030868800418688009283800092
:107f0800a383800090838000a1838000809ab900b9
:107f1800828bb90086027800050242000010b80082
:107f280001024200840078004709dd004903de00b1
:107f380006037100c98bde000600be00508688006b
:107f4800618688009cd0bf00e14f50002a003a00ab
:107f5800a0848000b184800061004000e080480077
:107f6800a0848800b1848800a2848000b384800043
:107f78000001200001002000800f5100818f59006e
:107f88000a003a00c2848000d3848000f0042000f4
:107f980001002000800f5100818f59000300360036
:107fa800fafe0700ebfe070011003700a2848000ec
:107fb800b38480000001200001002000800f5100e0
:107fc800818f59000a003600e2fe0700a284800073
:107fd800b3848000e01f200001002000800f5100c2
:107fe800818f59000200360014ff0700e0fe0700e9
:107ff80051ff070029003700c0848000d184800029
:1080080061004000e0804800c0848800d184880076
:10801800c2848000d3848000000120000100200079
:10802800800f5100818f59000a003a00a284800015
:10803800b3848000f004200001002000800f51006c
:10804800818f590003003600fcfe0700c8fe0700b8
:1080580011003700c2848000d38480000001200012
:1080680001002000800f5100818f59000a0036005e
:10807800bffe0700c2848000d3848000e01f200078
:1080880001002000800f5100818f59000200360046
:10809800befe0700affe070014ff07004f04be0036
:1080a8000080fa00000006000400fa00889fbe0065
:1080b8008a9fbe00c2818000d38180001084800026
:1080c8002184800000015100818159004318dd009e
:1080d800cd10de00810070004310dd004082880072
:1080e800518288004282800053828000a0f62f00cf
:1080f800f1ff2f00800f5100818f590029003d00aa
:1081080042828000538280006082800071828000f9
:108118000000510081805900026524008289b9005d
:10812800e002b900840178000301410003652400de
:108138000300b80001014100820078004109dd0018
:108148004f05de000a057100cf8dde0040828000f9
:1081580051828000027d20008289b900e002b900c6
:108168008401780003014100037d20000300b8006a
:1081780001014100820078004109dd004f04de0062
:1081880008047100cf8cde000a0144008b814c008a
:108198000083800011838000001f4100019749007f
:1081a800280037004282800053828000608280006d
:1081b80071828000000051008180590002772100ff
:1081c8008289b900e002b900840178000301410006
:1081d800037721000300b800010141008200780004
:1081e8004109dd004f03de0006037100cf8bde007e
:1081f8004082800051828000420620008289b900b6
:10820800e002b90084017800030141004306200020
:108218000300b80001014100820078004109dd0037
:108228004f02de0004027100cf8ade000601420020
:1082380087814a000083800011838000001f41006d
:108248000197490040828000518280006082880046
:10825800718288001e00be00e00f5000e08f5800b9
:1082680003003d006030ef006230ef000e00370081
:10827800e0ff2700010020001e01be00800f510012
:10828800818f590005003400e0ff2700010020001d
:108298000083880011838800030037001e01be0098
:1082a80002838800138388004f05be004f04be0078
:1082b8000080fa00000006000400fa00889fbe0053
:1082c800028280001382800098838000a983800046
:1082d8004348dd00cd40de00810070004340dd00f2
:1082e80000005100818059004006b0000180b000b4
:1082f800a0828800b1828800a2828000b3828000b8
:10830800c0828000d1828000000051008180590025
:10831800c28f20008289b900e002b9008401780088
:1083280003014100c38f20000300b8000101410090
:10833800820078004409dd004c03de00060371006a
:10834800cc8bde00a0828000b1828000c244200075
:108358008289b900e002b900840178000301410074
:10836800c34420000300b8000101410082007800e6
:108378004409dd004c02de0004027100cc8ade00f4
:108388000601420087814a002083800031838000f3
:10839800001f410001974900a0828000b18280003f
:1083a800c0828800d18288001e00be00e00f500005
:1083b800e08f580003003d006430ef006630ef00a6
:1083c8000e003700e0ff2700010020001e01be005c
:1083d800800f5100818f590005003400e0ff27000d
:1083e80001002000208388003183880003003700c3
:1083f8001e01be0022838800338388004f04be001c
:088408000080fa0000000600ec
:020000040000fa
:020000040001f9
:108410000000fa00ffff37000000fa00ffff3700fe
:108420002600fa00881f780000802c000110200030
:1084300098ef0700008fbe0050052000a10a200021
:10844000f2ee07001e00be001fef07004047980035
:108450004e4090000004a2000004e0000100320041
:10846000ebff0700302322001101200030079800a5
:1084700041079800605625004104200050079800ed
:1084800061079800c0bc2b00a10a2000700798006b
:10849000010f9800f0ef2e00d10d2000100f980072
:1084a000210f98005e019000ee0190003e009000c8
:1084b000ce0090000202be000001be001e00be0001
:1084c0000fef0700404798004e4090000084fb00eb
:1084d0001e099000ae0990007e0090008e0890006a
:1084e00044002000050020003e034200ae834a0005
:1084f0000202be000001be000600be0000ef070041
:108500000080fb000000640000f0a7000000ea000b
:108510000000ea004f00de00404798004e40900007
:108520000004a2000004e00001003200b8ff0700d0
:10853000bbee07001e00be00d6ee0700300f98000d
:10854000410f980022002000030020003e0041005f
:10855000ae804900cfee0700500f9800610f9800e1
:1085600044002000050020003e004200ae804a008a
:10857000c8ee0700700f98000117980062002000f5
:10858000030020003e004100ae804900c1ee07001c
:1085900010179800211798003e019000ce0190001e
:1085a0003e089000ce089000800f5100818f590046
:1085b00015003a005e019000ee0190005e08900008
:1085c000ee089000800f5100818f59000e003a0094
:1085d0007e0190008e0990007e0890008e10900021
:1085e000800f5100818f590007003a001e0990004a
:1085f000ae0990001e109000ae109000800f510048
:10860000818f59000100320083ff07004f0478007a
:108610000080fa00000006000e00fa0000802c0026
:10862000011020001bef0700200798003107980079
:1086300050052000a10a200074ee07002e009000d3
:10864000be009000a0ee0700004f98000e4890007a
:108650000004a2000004e000010032006cff0700eb
:108660006000b800008fbe00160037002400200014
:10867000050020003e014200ae814a002e0090001d
:10868000be0090003e024000ae8248000400be00e2
:108690000202be001e01be0099ee0700004f9800c6
:1086a0000e4890000004a2000004e0000100320027
:1086b00057ff070042002000030020001e0f41006a
:1086c0005e974900f07f2000010020001e01be00df
:1086d000800f5100818f5900e4ff360050ee0700f3
:1086e0006000b800008fbe00120037002e0090001e
:1086f000be0090003e024000ae8248000400be0072
:1087000064ee070050079800610798005e00900033
:10871000ee009000be0f5000ae8f580001003200f6
:108720003dff070022002000030020001e0f410033
:108730005e974900f07f2000010020001e01be006e
:10874000800f5100818f5900e8ff36000080fa0049
:10875000000006000000fa0031ff0700aeff07002e
:108760000080fa00000006000600fa0010079800da
:108770002107980010c0b300004f7800500520007a
:10878000a10a200021ee07001e009000ae0090001c
:108790004dee0700004f780021ee07000080fa0040
:1087a000000006001200fa00889fbe0050079800e3
:1087b0006107980072079800030f980010c0b3007b
:1087c000004f780050052000a10a20000fee07009e
:1087d0007e0190008e099000f0ff2f00f10f200025
:1087e000020278000301780080017800810078009f
:1087f00003006200810061008104780000047800b9
:108800000800be0010079800210798007e00900025
:108810008e0890004808de00010020003007980014
:10882000410798001e84fb003e019000ce0190009d
:108830001e009000ae0090000202be000001be00cb
:108840005e009000ee0090002dee07000080fb001f
:108850000000640000f0a7000000ea000000ea0049
:108860004f00de00004f7800eded07001e4078005d
:108870004f04be000080fa00000006001000fa005d
:1088800060079800710798006e009000fe0090004d
:1088900000ee070020079800310798006e00900056
:1088a000fe00900062004000e0804800f9ed070003
:1088b00040079800510798002e019000be019000db
:1088c0004e009000de009000c800dd000000200097
:1088d000001f7100019771001e00be000080fa00a9
:0488e000000006008e
:020000040000fa
:020000040001f9
:1088e400081100005401000082000000050005008a
:1088f400000600000600060000070000070007004d
:108904000008000008000900000900000a000a002d
:10891400000b00000b000c00000c00000d000e000a
:10892400000e00000f0010000011000011001200e2
:1089340000130000140015000016000017001800b2
:10894400001900001a001c00001d00001e001f007a
:108954000021000022002400002500002700280038
:10896400002a00002c002e000030000031003300eb
:108974000036000038003a00003c00003e00410090
:108984000043000046004800004b00004e00510028
:108994000054000057005a00005d000060006400ad
:1089a400006700006a006e00007200007500790024
:1089b400007d000081008500008a00008e00920086
:1089c400009700009b00a00000a40000a900ae00d6
:1089d40000b30000b800bd0000c20000c700cd0015
:1089e40000d20000d700dd0000e30000e800ee0044
:1089f40000f40000fa00ff00000501000c01120061
:108a0400011801001e012400012b0100310137006f
:108a1400013e010044014b000151010058015e0078
:108a2400016501006c01720001790100800186007a
:108a3400018d010094019b0001a10100a801af0078
:108a440001b60100bc01c30001ca0100d101d70075
:108a540001de0100e501eb0001f20100f901ff0074
:108a6400010602000c021300021902002002260073
:108a7400022c020032023900023f020045024b0080
:108a84000251020057025d000263020068026e0098
:108a94000274020079027f00028402008a028f00bd
:108aa4000294020099029e0002a20200a602ab00f8
:108ab400020000005c12000032010000800000008f
:108ac40000100000040100008000000004110000f8
:108ad4000200000082000000040000008e13000069
:108ae4000400000082000000ffffff00ff00000000
:108af4009213000002000000800000000611000034
:0c8b0400020000008000000000000000e3
:020000040000fa
:020000040001f9
:109000000000000000000000000000000000000060
:109010000000000000000000000000000000000050
:109020000000000000000000000000000000000040
:109030000000000000000000000000000000000030
:020000040000fa
:020000040005f5
:047e3000f8ffff0058
:020000040000fa
:020000040005f5
:047e38007bffff00cd
:020000040000fa
:020000040005f5
:047e4000ff7fff00c1
:020000040000fa
:020000040005f5
:047e5000dfffff0051
:00000001FF
