:020000040001f9
:1040000058a40400000000000000fe00022e210061
:104010000019780001097800000006000000fe0089
:104020000000eb008000eb00f8ff0700d628ef004f
:10403000000006000000fe000000fe00801f780067
:10404000811f7800821f7800012e21001246800017
:10405000c3e8a90031007800b0468800110078005c
:10406000b0468800d1e8a800000000000000000071
:10407000d1e8af00feff370002f0a700c3e8a800b8
:104080004f017800cf0078004f0078000000060054
:104090000000fe00a2028000a10288009080ba0009
:1040a0001000ba00a2028800000006000000fe0016
:1040b000a2028000a10288001000ba00a2028800bb
:1040c000000006000000fe00f27f200000016100f9
:1040d00008003a003200240082468800904688009a
:1040e000a14688001ea00200000000001000200071
:1040f000d1a8af0000002000000006000000fe0074
:10410000d1e8af00feff37000000a7001300370022
:104110000010a70011003700a146880090468800d3
:104120001000240080468800a0028000a10f20001b
:10413000a1028800010020008208bb008398bb0018
:104140008408bb008598bb001ea002000000000090
:10415000a002880010002000d1a8af0000002000bd
:10416000000006000000fe00d1e8af00feff3700af
:104170000000a700140037000010a700120037004d
:10418000a146880090468800a1028000100024000b
:1041900080468800a00f2000a002880000002000b8
:1041a0000208bb00f20f20000298bb000308bb000e
:1041b0000298bb001ea0020000000000a1028800bf
:1041c00010002000d1a8af00000020000000060071
:1041d0000000fe00d1e8af00feff3700f30f200023
:1041e0008081610009003a0090468800a14688005d
:1041f0002000240080468800c24688001ea00200dd
:104200000000000010002000d1a8af000000200036
:10421000000006000000fe00d1e8af00feff3700fe
:10422000f30f20008081610015003a00904688005d
:10423000a14688001000240080468800a00f2000be
:10424000a00288000000200001082000f40f2000d8
:104250003208bb000498bb003208bb000490bb00ce
:104260001ea0020000000000d2a8ec00d2a8ec00c2
:104270002100b100f6ff3a0010002000d1a8af00e5
:104280000000200000000600f27f20000000610016
:104290000000060002802f0000006100f2ff2f00e6
:1042a0008100610000000600ffff3700ffffff00f4
:1042b000ffffff00ffffff00ffffff00ffffff000a
:1042c000ffffff00ffffff00ffffff00ffffff00fa
:1042d000ffffff00ffffff00ffffff00ffffff00ea
:1042e000ffffff00ffffff00ffffff00ffffff00da
:1042f000ffffff00ffffff00ffffff00ffffff00ca
:10430000ffffff00ffffff00ffffff00ffffff00b9
:10431000ffffff00ffffff00ffffff00ffffff00a9
:10432000ffffff00ffffff00ffffff00ffffff0099
:10433000ffffff00ffffff00ffffff00ffffff0089
:10434000ffffff00ffffff00ffffff00ffffff0079
:10435000ffffff00ffffff00ffffff00ffffff0069
:10436000ffffff00ffffff00ffffff00ffffff0059
:10437000ffffff00ffffff00ffffff00ffffff0049
:10438000ffffff00ffffff00ffffff00ffffff0039
:10439000ffffff00ffffff00ffffff00ffffff0029
:1043a000ffffff00ffffff00ffffff00ffffff0019
:1043b000ffffff00ffffff00ffffff00ffffff0009
:1043c000ffffff00ffffff00ffffff00ffffff00f9
:1043d000ffffff00ffffff00ffffff00ffffff00e9
:1043e000ffffff00ffffff00ffffff00ffffff00d9
:1043f000ffffff00ffffff00ffffff00ffffff00c9
:1044000004aa04000000000000a204000000000054
:1044100000a204000000000000a204000000000050
:1044200000a204000000000000a204000000000040
:1044300000a204000000000000a204000000000030
:1044400052a504000000000000a2040000000000cb
:1044500000a204000000000000a204000000000010
:1044600000a204000000000000a204000000000000
:1044700000a204000000000000a2040000000000f0
:1044800000a204000000000000a2040000000000e0
:1044900000a204000000000000a2040000000000d0
:1044a00000a204000000000000a2040000000000c0
:1044b00000a204000000000000a2040000000000b0
:1044c00000a204000000000000a2040000000000a0
:1044d00000a204000000000000a204000000000090
:1044e00000a204000000000000a204000000000080
:1044f00000a204000000000000a204000000000070
:1045000000a204000000000000a20400000000005f
:1045100000a204000000000000a20400000000004f
:1045200000a204000000000000a20400000000003f
:1045300000a204000000000000a20400000000002f
:1045400000a204000000000000a20400000000001f
:1045500000a204000000000000a20400000000000f
:1045600000a204000000000000a2040000000000ff
:1045700000a204000000000000a2040000000000ef
:1045800000a204000000000000a2040000000000df
:1045900000a204000000000000a2040000000000cf
:1045a00000a204000000000000a2040000000000bf
:1045b00000a204000000000000a2040000000000af
:1045c00000a204000000000000a20400000000009f
:1045d00000a204000000000000a20400000000008f
:1045e00000a204000000000000a20400000000007f
:1045f00000a204000000000000a20400000000006f
:1046000000a204000000000000a20400000000005e
:1046100000a204000000000000a20400000000004e
:1046200000a204000000000000a20400000000003e
:1046300000a2040000000000e6a904000000000041
:10464000c4a904000000000000a204000000000053
:1046500000a204000000000000a20400000000000e
:1046600000a204000000000000a2040000000000fe
:1046700000a204000000000000a2040000000000ee
:1046800000a204000000000000a2040000000000de
:1046900000a204000000000000a2040000000000ce
:1046a00000a204000000000000a2040000000000be
:1046b00000a204000000000000a2040000000000ae
:1046c00000a204000000000000a20400000000009e
:1046d00000a204000000000000a20400000000008e
:1046e00000a204000000000000a20400000000007e
:1046f00000a204000000000000a20400000000006e
:1047000000a204000000000000a20400000000005d
:1047100000a204000000000000a20400000000004d
:1047200000a204000000000000a20400000000003d
:1047300000a204000000000000a20400000000002d
:1047400000a204000000000000a20400000000001d
:1047500000a204000000000000a20400000000000d
:1047600000a204000000000000a2040000000000fd
:1047700000a204000000000000a2040000000000ed
:1047800000a204000000000000a2040000000000dd
:1047900000a204000000000000a2040000000000cd
:1047a00000a204000000000000a2040000000000bd
:1047b00000a204000000000000a2040000000000ad
:1047c00000a204000000000000a20400000000009d
:1047d00000a204000000000000a20400000000008d
:1047e00000a204000000000000a20400000000007d
:1047f00000a204000000000000a20400000000006d
:1048000000a204000000000000a20400000000005c
:1048100000a204000000000000a20400000000004c
:1048200000a204000000000000a20400000000003c
:1048300000a204000000000000a20400000000002c
:1048400000a204000000000000a20400000000001c
:1048500000a204000000000000a20400000000000c
:1048600000a204000000000000a2040000000000fc
:1048700000a204000000000000a2040000000000ec
:1048800000a204000000000000a2040000000000dc
:1048900000a204000000000000a2040000000000cc
:1048a00000a204000000000000a2040000000000bc
:1048b0006f2e21000eff26000e0188000000000070
:1048c000000020000000e000020032000001200093
:1048d0002002880014000700cd0207000000e0005d
:1048e00003003a00005e2c000100200002003700a7
:1048f0000000200001002000810f70000100320044
:104900000f000700000020000000e000020032005d
:10491000000002000000000040b3020000000000a0
:104920000040da000000fe00200020000000e0004f
:1049300002003200100020009001880000000600f4
:10494000a1028800800478000000eb001f003700ff
:10495000e284440054a0b4009905ba00e284440003
:1049600054a0b4009906ba00e284440054a0b400f4
:104970000006eb00476fde00fd07b200ae018800c5
:10498000636ce10003003a000ad801000000eb006c
:104990000e003700606ce10008003a00004deb00ab
:1049a0000a05e800020039003420ec000af0a000fb
:1049b0008b05e900f9ff3e00040037006168e10063
:1049c000010032000086eb000b00070019c7ba0097
:1049d0001905ba000e04e00003003a000a00e000e6
:1049e000dbff3a0000000600fe07b200ae028800be
:1049f0008a047800f5ff37000cd0a300e20f4d00c9
:104a00001c003b0089027800354dba000a05e80019
:104a1000020039003420ec000af0a0008b05e90008
:104a20000f003200254dba000a05e80002003900e7
:104a30003420ec000af0a0008b05e90008003200e9
:104a40000c00e0000600320015cdba000a05e800af
:104a5000020039003420ec000af0a0008b05e900c8
:104a60008984e80054a0b4000b00e000e2ff3a00a3
:104a7000000006009902ba00055d78008b05e90088
:104a8000f7ff3200c82ade00055d78008b05e900db
:104a9000f3ff32000c00e000f1ff320019ddba0034
:104aa000eeff37003600f800809fbe00829fbe00f8
:104ab000849fbe00869fbe000800fa000028a9005f
:104ac000048080000400e0002800320031a3a80028
:104ad0003183a80067a3a8006783a8003263a900f8
:104ae0003243a9006863a9006843a900409c2000e4
:104af00050188800501880000000d100401888002d
:104b00005118800050d02000010050005118800042
:104b10000088b8000001be00220798003307980003
:104b200042e720002e029000be029000050009001e
:104b300042aad800601a8800501880004200de00a7
:104b4000a01a8800501880004200de00a01a8800d9
:104b50000180800000002100008060000000e00073
:104b6000e80032000000fe00e60037008406210065
:104b7000144278000404e00020003a00a59480006c
:104b8000547f2000848f520004003600a5948000da
:104b9000b4802f00048f4200020037000002eb00b7
:104ba000040f7800548380001e0378000432b8009c
:104bb000462bdd004a22de0004027300ca2ade0012
:104bc0000e83e800040b7800959380000e82e800c5
:104bd00014027800848f52000800360014c0b3001d
:104be00004437800d5062100864a780014c0b3003b
:104bf0000443780085062100864a7800f58080000d
:104c0000341f2000848f520012003a0094938000d9
:104c10004481880045818000d4828000848f5200c6
:104c200002003600d4828000448188000483800022
:104c30006481880031a3a9003183a90067a3a9007a
:104c40006783a9003263a8003243a8006863a80004
:104c50006843a800f5808000241f2000848f520044
:104c6000a6003600a4938000e322b90005858000e9
:104c7000050242004222de0014858800a4938000d1
:104c8000048588004581800094938000048252004e
:104c9000a481880065818000148580000482520010
:104ca000d4818800a5818000b481800004825200f4
:104cb0000504200005a3b900a5818000040420009c
:104cc00004aab9000602420087824a00c628dd0015
:104cd0004a21de0002817000caa9de0002017800cc
:104ce00092818800d3818000e2818000028151009e
:104cf000a30020000392b900d3818000620020004d
:104d00000299b9000401410085814900461add007d
:104d10004a10de0000007200ca98de000000780031
:104d2000c0818800a0818000b0818800d08180008f
:104d3000e081880090818000c1818000810f500057
:104d4000010034000100780051188000010040008b
:104d50008081880081818000c0572100808f5000b1
:104d600003003400c057210080818800060037000e
:104d700081818000309c2000808f500002003c0028
:104d8000409c20008081880041818000508180000b
:104d9000808f500016003100a0818000e50f400098
:104da00008003d00a1938000700c2000808f50000f
:104db00004003e0031a3a8003183a80067a3a80027
:104dc0006783a800a0818000e10f50001c00340020
:104dd000008080000000e00019003a0031a3a90023
:104de0003183a90067a3a9006783a90014003700d5
:104df00081818000809c2000808f500005003c0055
:104e000031a3a8003183a80067a3a8006783a80086
:104e10000b00370081818000e09c2000808f5000d3
:104e200007003400008080000000e00004003a0029
:104e300031a3a9003183a90067a3a9006783a90052
:104e4000f01a80000000a000f01a880050188000be
:104e500020858800808180005018880050188000cc
:104e60000000d100401888005118800050d0200068
:104e7000808f5000020036004c23ef0011003700f5
:104e80005118800050d020000100500051188000bf
:104e90000088b8000001be00220798003307980080
:104ea00042e720002e029000be029000050009009b
:104eb00042aad800601a880002003700f01a800069
:104ec0003085880071198000000220000080600099
:104ed0000000e000f9ff3a0030858000401fb0007c
:104ee00021858000810f500006003100501880009d
:104ef0004200de00a01a8800020037003630ef00c2
:104f00003c30ef0031848000301f2000808f500043
:104f10005000360051848000709480000080500062
:104f20007084880061848000c093800000805000fd
:104f3000a08488007194800050848000c012b10069
:104f4000808f5000090031007184800080848000cf
:104f5000008050008080d100708480004380de009b
:104f60000080400090848800160037007194800013
:104f700050848000c012b000808f500009003100c2
:104f8000718480008084800000805000c280de0038
:104f9000708480004380de000080400090848800a0
:104fa00008003700718480008084800000805000f9
:104fb000c200dd00708480004200dd0000804000ff
:104fc00090848800a1848000b0848000008050001c
:104fd0008080d100a08480004280de0000804000fc
:104fe000c08488007084800080848800a084800051
:104ff000b084880090848000c1848000810f5000bc
:105000000100340001007800d11d80000100400043
:10501000d0848800d08480000000e00001003d00c2
:105020009a30ef00d0848000c1838000810f50004f
:1050300002003600c0838000d0848800d0848000c5
:10504000d01d8800d01d80000000d100001e880007
:10505000020037009030ef009630ef00c072800001
:10506000700060000000e00003003a000080800053
:105070000000a00000808800f1808000201f200038
:10508000808f50003100360010838000c012b000c5
:1050900041818000810f5000170036009cd0bf0076
:1050a0000004e00014003a00a1818000c01220003a
:1050b000808f50000e003400810a2100914078005a
:1050c00020c3b30080cf500004003600a8d0bf003a
:1050d0000040e800a8f0b7001c0037000080800006
:1050e0000010a00000808800a870ef0017003700b3
:1050f000a870ef00150037009193800010838000a6
:10510000808f5000100031009cd0bf000004e000f0
:105110000d003a00910a21009140780010c3b300bd
:1051200080cf500004003e00a9d0bf000040e8003e
:10513000a9f0b70005003700008080000010a00033
:105140000080880001003700a970ef00a193800063
:1051500030838000808f50000d003600a10a2100ae
:105160009140780010c3b30080cf500004003e008f
:10517000aad0bf000040e800aaf0b7000500370041
:10518000008080000030a00000808800010037000f
:10519000aa70ef009193800020838000808f5000e0
:1051a0000d003600b10a21009140780010c3b30011
:1051b00080cf500004003e00abd0bf000040e800ac
:1051c000abf0b70005003700008080000020a00091
:1051d0000080880001003700ab70ef00a1948000d0
:1051e00010802f0000804000e1838000810f50007c
:1051f0000d003100c10a21009140780010c3b300b6
:1052000080cf500004003e00acd0bf000040e8005a
:10521000acf0b70005003700408080000000a0001f
:105220004080880001003700ac70ef00c19380001f
:1052300000848000808f50000d003600d10a2100cc
:105240009140780010c3b30080cf500004003e00ae
:10525000add0bf000040e800adf0b700050037005a
:10526000408080000020a0004080880001003700be
:10527000ad70ef007194800020848000808f50001a
:105280000b003600aed0bf00fd4f500004003e00c2
:10529000aed0bf000040e800aef0b7000500370018
:1052a000408080000040a00040808800010037005e
:1052b000ae70ef0031848000301f2000808f5000de
:1052c0002a0036005184800010848000808f5000b6
:1052d0001400310071848000c0122000808f5000c3
:1052e0000e003400f10a21009140780010c3b30091
:1052f00080cf500004003e00afd0bf000040e80067
:10530000aff0b70019003700408080000030a000e7
:1053100040808800af70ef0014003700af70ef00de
:10532000120037007194800010848000808f50003c
:105330000d003100010b21009140780010c3b30033
:1053400080cf500004003e00b0d0bf000040e80015
:10535000b0f0b70005003700408080000030a000aa
:105360004080880001003700b070ef000080fa0034
:105370004f03be004f02be004f01be004f00be00f3
:105380003600f90000400600801f78000000fa0097
:1053900009c8a90031a3a8003183a80067a3a80009
:1053a0006783a8003263a9003243a9006863a9009b
:1053b0006843a9000080800000a0a0000080880051
:1053c0000080fa004f00780000400600801f78003f
:1053d0000000fa0009a8a9009d83a8009e43a90027
:1053e000ba23ef00d01d80000000d100001e88000d
:1053f000408080000050a000408088000080fa00bb
:105400004f007800004006000040da000000fe0077
:10541000000005000001be001b0007000470a7008b
:1054200003f0a10003f8a30013003a006509b100de
:1054300010003200090035006928e1000200350043
:1054400001002800000005000000400081804800a5
:105450008502e900fcff3a0000000600f88f4200d8
:10546000050035008100d1000080d3008502e800ee
:10547000fcff3a00000006008000eb000000050081
:105480006011b80027013700c70ade00f107b2003b
:10549000f50fb20008003200e1cf420002003200f6
:1054a0000170a00024000500810f7000010032008f
:1054b0000408050044000500810f700002003a0056
:1054c000140005008502e9000000400081c048008a
:1054d000fcff3b000170a000240005006022b80022
:1054e000060220000000d0008180d2000482d20099
:1054f0008582d2000000a0000202520083825a007e
:10550000030031000202420083824a000000a10031
:105510000603e900f3ff3a00000006000383680079
:105520000700280007036300470ade000480a1008b
:10553000c71ade000580a100f70f20000720e10058
:10554000420032000728e10040003200889fbe0080
:105550008a9fbe008c1f7800f107b200f307b200eb
:105560000400e000640032000170a0000500e000cb
:10557000680032000370a00085054200eb07b1000f
:105580000204b8000302b8008484440060854a0025
:10559000020ab800848444000a854a00030ab8005d
:1055a00004054500040033000804d0008984d200bb
:1055b0000a85d2008b05e9006158e1003d00350005
:1055c00002102000090161000308200089816100a8
:1055d000f70720008783640008867300c84cde004c
:1055e000c853dd00878474004855de000300e000e6
:1055f0000600320082037600040032008904e800cd
:1056000060054d000a88a3000c003a00f70f200047
:105610000758e10044003d000a70a100c75ddd00ad
:105620000a8575008a007300090078004f0678002b
:105630004f05be004f04be00000006000a05d10061
:105640008984d3008b05e800f0ff3700881f7800bd
:105650000604780090000700070278000001fd00b2
:105660008101fd008c00070087027800850372002d
:105670000778a300050032000001fd008101fd0054
:105680009f0007004f0478000000060085037200a9
:105690000748a30003003200f0ff2f00f1ff2700ae
:1056a000f8ff37000000200001f827008880700014
:1056b000f4ff3700880178004848dd0080817100e0
:1056c0004848de00c850dd0001007000c850de0010
:1056d000060478000b01780016000700888070002f
:1056e000d2ff37000500e00005003200170020005f
:1056f0003a0007009dff370081037000f9ff3a0070
:10570000860078004f0678004f05be004f04be00ab
:105710000000050083037100f9ff3200270020001c
:105720002e00070094ff370001f8270086807000e4
:10573000f4ff37000100e000260032006101110093
:105740007810e10023003c006022b8007010e100f6
:105750000400350080027800010078008000eb0032
:10576000700151000200e0000900340070031100d4
:10577000062add00822ade008603dd0087827200b1
:105780000200de00860bdd00070070008208de00ec
:1057900084817100f4ff270004826200848171001b
:1057a00004002800848262006102600005f0a60007
:1057b0000000060004827100070032000000e800cb
:1057c000e0804800000006000002be006000b80053
:1057d000efff37006000b80000000600889fbe00a1
:1057e0000004eb006138e10016003a000100e0001f
:1057f00008003a00c800de004800dd0088002000f4
:105800000100e00003003a00c800de004800dd00af
:10581000680444008184cf00e98454000600340009
:105820008908dd00f08314008703de0087807000a4
:105830000900dd0009044400610214004f04be00a9
:10584000000006000300e00008003a00c811de0076
:105850004811dd00880020000300e00003003a004a
:10586000c811de004811dd00680444008384cf00c5
:10587000e9845400060034008919dd00f083140027
:105880008713de00878171000911dd0009044400df
:10589000e1021400e9ff37002700200001f0a70013
:1058a00017002000470bde00f60fb20004003200a4
:1058b0000643e8000a0032004702b3000000060079
:1058c00001037800f607b2000603700002003a00f8
:1058d0000703b300000006008702b30000000600c3
:1058e00001037800f607b2000603700002003200e0
:1058f0000770a000000006000760a000000006007e
:105900000478a300040032000578a30003003200ed
:105910000168a30001003a000200be000160a0007f
:1059200000000600889fbe008a9fbe0000827000b3
:105930000402710004827100260032000004be00df
:105940000200be006011b8006b0920009502200023
:105950000182cf000a0039000541b1000082cf006a
:10596000070039000541b1000982cf000400390069
:105970000541b1000882cf00010039000541b100a6
:1059800005425200120032000a003b008281710081
:10599000610164008100d1000080d3008984d300bc
:1059a0000884d3008b05e8000442e800f7ff3a00c2
:1059b000070037000804440089844c0000004800b8
:1059c000818048008b05e9000442e900f9ff3a00b4
:1059d000030007004f05be004f04be000000060094
:1059e00081002000618055000b003d000b0020006d
:1059f00061fe2f000100e1001d0034008281710072
:105a0000610164008904d1000884d3000000e8002b
:105a1000faff3a007100200061006400030070008a
:105a2000020060000900320061044400e0844c0080
:105a30000988a500050032008b05e8006808e10030
:105a400002003a008904d1000884d300f20f20003c
:105a50000258e10005003d00c75ddd00f907b20016
:105a60008980750008007800000006000bf8270008
:105a70008b00780000000500889fbe008a9fbe0052
:105a80008c9fbe000004be000400200005f8270023
:105a90008583600004037800840f5300858f5b00ca
:105aa00007003a000801be000800be009bfe070088
:105ab0000001be000800be0084000700100037008f
:105ac000e00f5000e08f58000f003c00810178008b
:105ad00003f0a10000017800e00f5100e08f5900b1
:105ae0006a00320010022000209788000801be00e2
:105af0000800be006c0007000001be00580107004e
:105b00000004be0061003700478cde00cf8cde0051
:105b1000e00f5400e08f5c000f003a006044b800d2
:105b20000400370000004000818048006104440008
:105b3000e0844c0004002000050820008181620000
:105b400004017800e00f5100e08f5900f5ff3200aa
:105b500061041400e0841c00f807b1000980b10062
:105b600081017800f307b200000178000200be0056
:105b70000170a0000808a3000200320000004000ed
:105b8000818048008984d1000884d300000040004f
:105b900081804800940120000200200003102000b2
:105ba0006055b8006066b8000c0341008d83490061
:105bb000800f5300818f5b0006003c000606410009
:105bc0008786490006005000878058000a0541007a
:105bd0008b85490000004000818048008301d1008e
:105be0000281d3000402e900efff3a00e00f500009
:105bf000e08f58001b0032000226240023da200028
:105c00000000200001f82300270007000200200008
:105c100003f82300220007000000e0001100350017
:105c20000226240023da20000000200001f82300cf
:105c3000260007000200200003f8230018000700d8
:105c40000000e0000300340062054500e0854d00df
:105c5000040037006000b8006100650000054500e1
:105c600081854d00c744dd000800200000002000b1
:105c700001f0230008044000898448008b85d1008e
:105c80000a85d3000804450089844d000800be0041
:105c90004f06be004f05be004f04be0000000600c8
:105ca000f4ff2f005302370007f827000783610035
:105cb0000638e10004003a00f707200087836100fe
:105cc0008703710001003a0003f0a200889fbe0024
:105cd0008a9fbe008c9fbe00470ade000480a100a0
:105ce000c71ade000580a1000700280007856000b4
:105cf00087856100f70f20000720e1009e00320039
:105d00000728e1009c003200010678000400e00052
:105d1000b4003200f7072000878060000170a00007
:105d20000500e000c0003200f70720008781610015
:105d30000370a000050652000f003a000b50e1006e
:105d40000b0032000308e10002003a000200e1000b
:105d50007e003200020450008384580004003100a9
:105d60000001fd008101fd008402fd008a05fd00a7
:105d70006044b800210037000520e10005003d0027
:105d80000001fd008101fd008402fd008a05fd0087
:105d9000050652007a60e100050035000170a1009f
:105da0004722dd00848070008a8070006300370025
:105db0006044b800ef02660007ff2f000706660088
:105dc0000500e00006003400f08312008714dd00b7
:105dd0000511de00071bdd00060171008519de00dc
:105de0007060e10005003500090478008204780045
:105df000030178008001eb00700656000b50e100b3
:105e000003003a000200400083804800040037008d
:105e100060041400e0841c000200580083805800d5
:105e20000188a300060032008100d1000080d30069
:105e30008984d3000884d3000402e80027003700d7
:105e40000178a30025003a000100e00003003200c1
:105e50008186cf00698656000a0037008c0020003a
:105e60000000e00004003a0009007800880478008f
:105e70000004eb00700252008086cf000d06460041
:105e80000c06e9007060e100060035008000780033
:105e900009007800880478000004eb0070065600c2
:105ea000700252000c00e0000c0034008c08dd0091
:105eb000f00316000703de00868070000c00dd0092
:105ec000074bde00060070008c4cdd000743de004f
:105ed000868474000c44dd000c0252006120e10055
:105ee0002000350061016000070028008781640000
:105ef000f7ff270087836400070374000300e000b6
:105f00000600320082037300040032000000e80043
:105f1000e08048000188a3000e003a00f70f20003f
:105f20000720e1004a003d000170a1004722dd008a
:105f3000810072008a8070000000be004f06be0023
:105f40004f05be004f04be00000006006000b80010
:105f5000faff37008100d1000080d3000402e8007e
:105f6000eeff37000401780089017400f1fd07009d
:105f70008a807000f1ff370047fe070007027800b3
:105f80000001fd008101fd0043fe0700870278004b
:105f9000850372000778a300040032000001fd00b1
:105fa0008101fd0056fe0700e4ff37008503620013
:105fb0000768a300080032000b50e1000300320024
:105fc000f0ff2f00f1ff2700dcff37000001fd008c
:105fd0008101fd00d9ff37000468a300d7ff32001c
:105fe000faff3700f8ff2700888360000b003a00b3
:105ff0000000e00009003a0083036400828373001c
:10600000020032000200be00ccff37000b50e1005e
:10601000ceff3a000200be00c8ff37001400200087
:10602000810064003eff3700f8ff2700888361008d
:1060300004003a000200e00002003a008c00780000
:10604000beff3700150020008301640039ff3700d0
:1060500001f827000000200081007500b7ff37001d
:10606000889fbe008a9fbe008c9fbe001b00200040
:106070000202be00058668000600280006066600cb
:106080004709de00f20fb200820032000243e8004e
:1060900080003200c729de00f30fb2007d0032001d
:1060a0000343e8007b003200f107b2000170a0005a
:1060b000f507b2000570a000c708dd004903de0047
:1060c000868070004700dd00c72add004923de001e
:1060d000868272004722dd00030551000403500050
:1060e0008583580003003100000040008180480093
:1060f0000a05e9008c1f78008a9fbe00040050004a
:10610000858058000402420085824a000000400059
:10611000818048000005eb000004be006033b80039
:106120000406be000d48e1005600310005000900dc
:106130004dccd8000c01b8000d02b800848141009c
:1061400060824a008283530003045c0084845c0004
:1061500060055d000a00e00025003a008005780037
:106160000d40e10049003100880078000700780008
:10617000050009004d88d8000c01b8000d02b800d8
:106180008481410060824a006003110083835b00c8
:1061900004045c00e0845c000900e00021003a0097
:1061a0004f01be000300e0002b003200e30160005d
:1061b000070673008c8171000100320064007000da
:1061c0004200de004e5edd000c007000c258de00b2
:1061d00001e0a00081000700cf01780081807100fc
:1061e0004f06be004f05be004f04be000000060073
:1061f0008c8343000d044c00e0844c0060054d008e
:106200000000e9000a00e000d4ff32008c83430064
:106210000d044c00e0844c0060054d000000e900d6
:10622000ceff37000c0343008d834b0060044c000d
:10623000e0844c000000e9000900e000d8ff3200d3
:106240000c0343008d834b0060044c00e0844c0041
:106250000000e900d2ff37004200de004e5edd00a4
:106260000c007000c258de0001e0a000cf017800f1
:106270000300e000daff320060001000e080180048
:10628000d7ff3700f0ff2f00aaff3700f0ff2f00e5
:10629000b9ff37000404be007ffd070087067800c1
:1062a0000004fd008104fd007bfd070007836600fc
:1062b0000678a300030032000960a7000800be00b2
:1062c0002c0037000d78a300020032000800be0049
:1062d000280037000778a30026003a0001f0a1004b
:1062e00009f0a1000668a30003003200f1ff2700b7
:1062f000f0ff2f00baff37000d68a3000300320043
:106300000800be008c807000b5ff37000768a3004e
:1063100007003a000648a30003003200f1ff2700ff
:10632000f0ff2f00aeff37000d48a300030032003e
:106330006000b8008c807000a9ff37000748a300f8
:106340000400320001f82700000020008c8070005b
:10635000a3ff3700740007000004fd008104fd0066
:1063600002057800700007000802be008a0178006c
:1063700059ff37000160a00012022000e288880067
:1063800097ff37000100e000120032000500e00036
:1063900010003200889fbe008a9fbe008c9fbe0006
:1063a0000006eb0001f8a3000300320060001000bb
:1063b000e08018000cf0a00005f8a30003003200f4
:1063c00060021200e0821a000cf0a2008005eb00cf
:1063d00041ff37006000b800020005008101700035
:1063e000270032008002eb0001f8a3000300320016
:1063f00060001000e080180015002000f407200065
:106400000202420020003400f703200087036000ee
:106410000604200000036300020820000001610060
:106420004700de00c909dd0000807100c708de00fa
:106430000600e00008003200870371000600320009
:106440001000b0000180b0000188a30002003200fb
:10645000c108de000402e800f107b200f30f2000db
:106460000320e10003003d004722dd0081007200af
:106470002900370001f827000000eb002600370054
:106480006000b80000000600680212007f20e100f2
:10649000020034006000b8001f0037006011b8002f
:1064a0007020e100040035008001780001007800d0
:1064b0008000eb00700252000400e000090034008c
:1064c000f00312000719dd008419de000703dd0068
:1064d000868171000400de00070bdd0006007000fd
:1064e0008408de00f7ff27008383630087037100c1
:1064f0000600280003036300070032000700e000e5
:1065000003003a0061016000028173000200320062
:106510001000b0000180b0000500a60000000600d9
:1065200001f0a000000006004f0ade004709de006f
:10653000f107b200f20fb2000b003200f207b10017
:106540000170a000c708dd00c901de008380700073
:106550004700dd000400a6000000060060001000f7
:10656000e080180000000600810f700001003a0072
:10657000000006008182cf000500e00010003e0010
:106580008082cf00ee8242007028e10004003900d2
:1065900007003e00800078000000eb000e0037008e
:1065a000708312008600de000500dd000a0037005f
:1065b000708352008600dd000000eb00060037000b
:1065c000e28252008508dd00708312000603de00bf
:1065d000868070000500dd007507b0000501ea0047
:1065e0000400a6000000060060001000e080180013
:1065f00000000600889fbe008a9fbe00841f7800ae
:10660000170007004f00780011003300f0ff2f0043
:10661000838f6c0006003b00040565000a00a7009c
:106620000800370009f0a60010002000080037001d
:10663000820f5400838f5c0003003900100020009b
:1066400001003e000000200009f0a7000000ea0061
:106650004f05be004f04be000000e0000000060031
:106660000004be0088fb07000003be000405be0056
:106670000200be0084fb0700844f75000000060086
:106680000c00fa00007c8000f0848800802fef006e
:10669000f0ff2000014020000100b800326320001c
:1066a000030020008dfb0700000078007082880046
:1066b00030632000014020000100b800f2ff2000fc
:1066c0000300200085fb070000007800808288001e
:1066d000f0ff2000014020000100b800921a2000c5
:1066e000030020007dfb07000000780090828800f6
:1066f000901a2000014020000100b800f2ff2000a5
:106700000300200075fb070000007800a0828800cd
:10671000c0632000014020000100b800f27f20008b
:10672000030020006dfb070000007800b0828800a5
:10673000f0ff2000014020000100b800c2632000eb
:106740000300200065fb070000007800c08288007d
:1067500071828000405120000100b8004609dd0030
:106760004a00de0000007100ca08de000000780068
:10677000d082880071828000802520000100b8004e
:10678000c609dd004a00de0000807100ca08de0094
:1067900000007800e082880071828000800c200078
:1067a0000100b800460add004a00de000000720069
:1067b000ca08de0000007800f08288007182800044
:1067c000400120000100b800c60add004a00de00da
:1067d00000807200ca08de00000078000083880094
:1067e00071828000605420000100b8004609dd007d
:1067f0004a00de0000007100ca08de0000007800d8
:106800002083880071828000602220000100b8008f
:10681000c609dd004a00de0000807100ca08de0003
:10682000000078001083880091828000c01720004b
:106830000100b800460add004a00de0000007200d8
:10684000ca08de0000007800308388007182800072
:10685000b08280000100b800c60add004a00de00f8
:1068600000807200ca08de000000780050838800b3
:10687000f0ff2000014020000100b800a2622000cb
:106880000300200015fb07000000780070838800db
:10689000a0622000014020000100b800f2ff2000ab
:1068a000030020000dfb07000000780080838800b3
:1068b000f0ff2000014020000100b80082102000fd
:1068c0000300200005fb070000007800908388008b
:1068d00080102000014020000100b800f2ff2000dd
:1068e00003002000fdfa070000007800a083880064
:1068f00071838000405120000100b8004609dd008e
:106900004a00de0000007100ca08de0000007800c6
:10691000b083880091838000800c20000100b800c3
:10692000c609dd004a00de0000807100ca08de00f2
:1069300000007800608488006000b80000007800e3
:10694000e08388006000b80000007800f0838800d1
:1069500091838000a00f20000100b800460add00ee
:106960004a00de0000007200ca08de000000780065
:106970000084880071838000c05d20000100b800a1
:10698000c60add004a00de0000807200ca08de0090
:10699000000078002084880071838000c05d2000a2
:1069a0000100b8004609dd004a00de000000710069
:1069b000ca08de000000780010848800317c800066
:1069c00000fc2f00008060000000a000307c8800e8
:1069d000a3052000b0230a00880f0000517c80002e
:1069e000f0f82f00008060000050a000507c88006c
:1069f000517c800080ff2f00008060000000a0001c
:106a0000507c88001200200080072000a10920008f
:106a100053f8200080497800814978008249780045
:106a2000207c8000000178000200a00060042000ab
:106a30007105200043f820008049780081497800e2
:106a40008249780000000000207c80006100600026
:106a50000000e000fcff3a0000000000217c800004
:106a600000022000008060000000e000fbff320018
:106a70008f0fa800717c800000fc2f000080600058
:106a80000000a000707c8800d4072000b0240a0019
:106a9000900f0000917c8000f0f82f0000806000d3
:106aa0000050a000907c8800917c800080ff2f0027
:106ab000008060000000a000907c88008fefa8009c
:106ac0001c8ea9001e8ea9003b2ea90056eea9001f
:106ad000568ea80056aea9003baea900554ea9009f
:106ae0000000eb0055052000b5468800a50a2000ef
:106af000b546880000688800a0c4b30028edb70040
:106b0000b16c8000f00f2c00008060000080a000bd
:106b1000b06c88000000280051052000b1468800b4
:106b2000a10a2000b146880000688800d1118000c9
:106b3000f09f2f0000806000d011880039e2a8008b
:106b400090242000001288003882a80038a2a800f3
:106b50000000eb0052052000b2468800a20a200087
:106b6000b246880000688800b0c3b3003aedb700b1
:106b7000d16c800000fc2f0000806000b001b300e9
:106b8000d06c88000000280053052000b346880020
:106b9000a30a2000b34688000068880011788000ae
:106ba000f09f2f00008060001078880001efa8009f
:106bb0000003200040788800008fa80000afa800e4
:106bc00051588000f0ff23000080600000f0a0001a
:106bd0005058880051588000f00f2c000080600051
:106be00050588800b15e800000f82f0000806000df
:106bf000b05e8800d15e800000f82f000080600049
:106c0000d05e88002158800000f82f0000806000ce
:106c1000205888002403200090240a00060b00005e
:106c20007158800030ff2f00008060000020a0001d
:106c300070588800015c800000fe2f00008060001a
:106c40000020a000005c8800015c8000f00f2e0096
:106c50000080600000a0a000005c8800115c800043
:106c6000f00f2e000080600000b0a000105c8800d3
:106c7000615c800000fe2f00008060000000a0002a
:106c8000605c8800715c800000fe2f000080600066
:106c90000030a000705c8800815c8000f00f2e0046
:106ca000008060000080a000805c8800915c800013
:106cb000f00f2e00008060000080a000905c880033
:106cc0001160800000f0200001007000106088005a
:106cd00001eba800000ca80000000000016080008b
:106ce00000102000008060000000e000fbff320088
:106cf0000a0ba800002ca800000000000160800022
:106d000000202000008060000000e000fbff320057
:106d10000a2ba80000eca800000000000160800021
:106d200000002800008060000000e000fbff32004f
:106d30000aeba80008cba80081eca8000164800041
:106d4000f0f32f00008060000070a0000064880055
:106d50005005200020648800a008200030648800ce
:106d600099eca800c1648000f0ff29000080600059
:106d700000d0a000c064880040552000f064880066
:106d800081eca80009c8a90029c8a80089eca800be
:106d900041648000f0ff29000080600000d0a00066
:106da000406488004164800070fc2f000080600017
:106db0000030a0004064880000fc2000706488005f
:106dc00081eca80009a8a90029a8a8000018800043
:106dd0003000b3000018880040062000e01a880048
:106de00040062000d01a880040062000901c880031
:106df00040062000801c8800409c2000501888001d
:106e0000501880000000d100401888005118800000
:106e100050d0200001005000511880000088b800b8
:106e20000001be00420798005307980042e7200087
:106e30004e029000de0290000500090042aad80030
:106e4000601a8800501880004200de00a01a8800f6
:106e5000501880004200de00501c880000802c008a
:106e600060198800900020005019880080112000cf
:106e7000a019880010202e00101b88008000280018
:106e8000001b880000002400301b88002be3a800b2
:106e900060be2100f01d880070382100c08388008a
:106ea000ba23ef00d01d80000000d100001e880032
:106eb000b11c800070fe2f00008060000030a00038
:106ec000b01c8800b11c800080ff2f000080600093
:106ed000b01c8800001d80008001b300001d8800e8
:106ee000a103a800e11c8000f03f2f00008060009b
:106ef000e01c88009d83a800f11c8000f0fc2f009e
:106f0000008060000040a000f01c88009e43a800a4
:106f10009a63a80097e3a800c1e8a900c3e8a80005
:106f200001088000f0cf2f00008060000080a000ea
:106f3000000888008043200040088800014280004b
:106f4000f0f82f0080806000000620000100700033
:106f5000004288000028a9002028a80001e1a8001c
:106f6000a14b8000f08f2f0000806000a04b8800b4
:106f70007489a90074a9a800a14b800000ff2f000c
:106f800000806000a04b8800b14b800000fe2f0005
:106f900000806000b04b880010002000504c88003a
:106fa00000f92500404c88000308a90075e9a800f5
:106fb0000080800000f0a0000080880003003700ff
:106fc0000000000001003700000000008059800030
:106fd000610060000000e00003003200300ba900f7
:106fe000606080009093880080598000620060009b
:106ff0000000e00003003200302ba9007060800028
:10700000a093880080598000680060000000e000c4
:1070100003003200306ba90090608000c0938800ac
:107020008159800000002100008060000000e00025
:1070300004003200318ba900206180004200de0094
:107040005094880081598000000024000080600076
:107050000000e0000300320031cba9004061800055
:107060007094880090598000620060000000e00089
:1070700003003200322ba90070618000a0948800c8
:1070800090598000680060000000e00003003200ba
:10709000326ba90090618000c0948800014080009c
:1070a00000002100008060000000e00013003200ba
:1070b00040d0bf00e14f500010003a000188a90005
:1070c0003ed0bf008080fb00222b210081004100c8
:1070d000914078000141780085242000824a7800a0
:1070e0000040e8003ef0b7003ed0bf00e34f500044
:1070f000020036003e70ef004070ef00014080005b
:1071000000802000008060000000e00010003200dd
:107110000168a9003fd0bf000080fb00412420008f
:1071200091407800622b2100000041000148780066
:107130003fd0bf00e74f500003003e003fd0bf00ec
:107140000040e8003ff0b70050c0b30044f0b70083
:107150003140800000402000008060000000e0001e
:107160001300320047d0bf00e14f500010003a003a
:107170000748a90045d0bf008080fb00f22b21000a
:1071800081004100914078000142780003f1200025
:10719000844978000040e80045f0b70045d0bf00c2
:1071a000f54f5000020036004570ef004770ef00c9
:1071b0003140800000202000008060000000e000de
:1071c000100032000728a90046d0bf000080fb0055
:1071d000c1f0200091407800522d210000004100b4
:1071e0000148780046d0bf00e84f500003003e0041
:1071f00046d0bf000040e80046f0b70050c0b300e2
:107200004bf0b700110b210091407800b2d0bf00c5
:1072100080cf500020003100b1d0bf008080fb0043
:10722000b2d0bf000080fb00008040000080d10091
:1072300000407800b3f0b700310b21009140780096
:1072400090cab30080cf50000200360090cab3004d
:10725000b3f0b700b3d0bf000080fb008000400057
:10726000e01121000080400090007800a08580009f
:10727000808f500004003600b3d0bf000040e9000a
:10728000b2f0b7000c003700b3d0bf000040e800f8
:10729000b1f0b70008003700b3d0bf000080fb009a
:1072a00060828800b170ef0090cab300b2f0b700fe
:1072b00050948000a08588006cd0bf000004e000de
:1072c00005003a006dd0bf000004e00002003a0063
:1072d000228ea90001003700228ea80011408000f4
:1072e00000102000008060000000e00034ff320049
:1072f0000308a90008cba800909380006101b800a2
:10730000b0858000c1858000020040008380480075
:10731000b0858800c185880091938000d085800069
:10732000808f50000200360090938000d085880046
:1073300091938000e0858000808f50000200310032
:1073400090938000e0858800bed0bf000040e80038
:10735000bef0b700e10b21009140780020c2b300dd
:1073600080cf50001f003a00be70ef00b285800051
:10737000c3858000d08580008000eb0000015100b3
:1073800081815900e08580008000eb000000510001
:1073900081805900cb0add004500de0000807200cc
:1073a000c508de0000007800008688008182800029
:1073b000008680000100b8004609dd004a00de00ba
:1073c00000007100ca08de0000007800108088000c
:1073d000b630ef00b830ef00ba30ef00f0ff200019
:1073e000e0858800a09380006101b80010868000cd
:1073f00021868000020040008380480010868800bb
:1074000021868800a193800030868000808f500004
:1074100002003600a093800030868800a19380008f
:1074200040868000808f500002003100a0938000d1
:107430004086880016d1bf000040e80016f1b70072
:10744000611121009140780020c2b30080cf50002c
:107450001f003a001671ef0012868000238680001c
:10746000308680008000eb000001510081815900ce
:10747000408680008000eb000000510081805900b0
:10748000cb09dd004500de0000807100c508de008c
:107490000000780050868800a1828000508680001d
:1074a0000100b800460add004a00de00000072005c
:1074b000ca08de000000780020808800c230ef009b
:1074c000c430ef00c630ef00f0ff20004086880097
:1074d000a09480006101b800608680007186800001
:1074e0000200400083804800608688007186880022
:1074f000a194800080868000808f500002003600ba
:10750000a094800080868800a194800090868000ee
:10751000808f500002003100a09480009086880087
:1075200017d1bf000040e80017f1b700711121002a
:107530009140780020c2b30080cf50002b003a0069
:107540001771ef006286800073868000808680005d
:107550008000eb000001510081815900908680007d
:107560008000eb000000510081805900cb0add0053
:107570004500de0000807200c508de0000007800d3
:10758000a0868800a1868000507f2000808f500058
:1075900005003600a1868000b0802f0000804000ea
:1075a000a086880001003700d430ef00b18280004f
:1075b000a08680000100b8004609dd004a00de0018
:1075c00000007100ca08de00000078001081880009
:1075d0001081800050808800cc30ef00ce30ef006a
:1075e000d030ef00f0ff200090868800b086800049
:1075f0000000e800b0868800b0868000ea0f5000e6
:107600001b003600d630ef00c09480006101b80046
:10761000c0868000d1868000020040008380480040
:10762000c0868800d1868800e08680000000e800df
:10763000e0868800e186800000042000808f5000f2
:107640000b003a00dc30ef00c0868000d18680005d
:10765000ca09dd004600de0000807100c608de00b9
:1076600000007800f0868800d830ef00da30ef00b4
:10767000608280006101b80000878000118780006f
:10768000020040008380480000878800118788003e
:107690002187800060828000808f500002003100ce
:1076a00060828000208788003187800060828000af
:1076b000808f500002003600608280003087880092
:1076c00018d1bf000040e80018f1b7008111210077
:1076d0009140780020c2b30080cf500062003a0091
:1076e0001871ef00028780001387800020878000d8
:1076f0008000eb000001510081815900308780003b
:107700008000eb0000005100818059004b0add0031
:107710004500de0000007200c508de000040780071
:1077200006f0b700e030ef00e230ef00e430ef00a9
:10773000f0ff200030878800c07280007000600079
:107740000000e00008003200610021009140780054
:10775000f0c5b30080cf50000300360010c0b30066
:10776000e8f0b7000a003700c072800070006000c7
:107770000000e00005003200610021009140780027
:1077800090c5b30080cf500001003e00e870ef00cc
:1077900031848000b05d2000808f50000b003600e7
:1077a000b10121009140780050c5b30080cf500056
:1077b00006003600408080000000e00003003a0030
:1077c00010c0b300e9f0b7000a0037003184800030
:1077d000b05d2000808f500005003600b10121000f
:1077e00091407800f0c4b30080cf500001003e000b
:1077f000e970ef00e8d0bf00e14f50000300320015
:10780000e9d0bf00e14f500012003a003f2ea8001f
:10781000f1868000b0802000808f50000a003e007a
:10782000ead0bf000040e800eaf0b700ead0bf00ad
:10783000e24f50000b003600ea70ef0010c0b300ba
:1078400069f0b70008003700ea70ef006970ef00d8
:10785000050037003f2ea900ea70ef006970ef00c5
:107860000100370000000000709480006101b80042
:10787000608780007187800002004000838048009c
:1078800060878800718788007194800080878000fd
:10789000808f50000200360070948000808788003e
:1078a0007194800090878000808f5000020031002a
:1078b000709480009087880019d1bf000040e800d4
:1078c00019f1b700911121009140780020c2b30056
:1078d00080cf50001f003a001971ef0062878000ce
:1078e00073878000808780008000eb0000015100da
:1078f00081815900908780008000eb0000005100da
:1079000081805900cb0add004500de000080720056
:10791000c508de0000007800a08788008183800011
:10792000a08780000100b8004609dd004a00de00a3
:1079300000007100ca08de0000007800d0838800d3
:10794000ec30ef00ee30ef00f030ef00f0ff200001
:1079500090878800c09380006101b800b0878000e4
:10796000c18780000200400083804800b087880003
:10797000c1878800c1938000d0878000808f50002d
:1079800002003600c0938000d0878800c193800039
:10799000e0878000808f500002003100c09380009b
:1079a000e08788001ad1bf000040e8001af1b70054
:1079b000a11121009140780020c2b30080cf500077
:1079c0001f003a001a71ef00b2878000c387800061
:1079d000d08780008000eb000001510081815900b8
:1079e000e08780008000eb0000005100818059009a
:1079f000cb09dd004500de0000807100c508de0017
:107a000000007800f0878800a1838000f087800064
:107a10000100b800460add004a00de0000007200e6
:107a2000ca08de000000780060808800f630ef00b1
:107a3000f830ef00fa30ef00f0ff2000e087880018
:107a400015d0bf000080fb00610060000000e00076
:107a500003003a00008080000070a00000808800d1
:107a60001ad0bf000004e00003003a00408080000c
:107a70000060a000408088006100210091407800f3
:107a800070c8b30080cf5000030036000080800033
:107a90000050a00000808800a19480007070200039
:107aa000808f500003003e00008080000080a00016
:107ab000008088001180800080522000808f50005c
:107ac0000d003600011021009140780030c6b3004f
:107ad00080cf500004003e0000d1bf000040e8000d
:107ae00000f1b70005003700008080000020a000f2
:107af00000808800010037000071ef0011808000d5
:107b000030242000808f500014003e00f18080005f
:107b1000301f2000808f5000100036009cd0bf0026
:107b20000004e0000d003a0011102100914078009f
:107b300070ccb30080cf500004003e0001d1bf00e4
:107b40000040e80001f1b700050037000080800028
:107b50000010a00000808800010037000171ef00d4
:107b600021808000e0152000808f50000d0036003d
:107b7000211021009140780070ccb30080cf5000dc
:107b800004003e0002d1bf000040e80002f1b7004f
:107b900005003700008080000030a00000808800d1
:107ba000010037000271ef00518080003024200076
:107bb000808f500013003e0031102100914078006a
:107bc00070ccb30080cf500004003e0003d1bf0052
:107bd0000040e80003f1b7000b0037009cd0bf0065
:107be0000004e00003003a00008080000090a00044
:107bf00000808800408080000000a0004080880055
:107c0000010037000371ef005180800060542000b4
:107c1000808f50000d003600411021009140780007
:107c200070ccb30080cf500004003e0004d1bf00f0
:107c30000040e80004f1b7000500370040808000f4
:107c40000010a00040808800010037000471ef00a0
:107c500061808000c00d2000808f50000d00360034
:107c6000511021009140780070ccb30080cf5000bb
:107c700004003e0005d1bf000040e80005f1b70058
:107c800005003700408080000020a0004080880070
:107c9000010037000571ef00d1838000805720007c
:107ca000808f50000d003600611021009140780057
:107cb00070ccb30080cf500004003e0006d1bf005e
:107cc0000040e80006f1b700050037004080800062
:107cd0000040a00040808800010037000671ef00de
:107ce000d1838000703e2000808f500011003e0044
:107cf00031848000401f2000808f50000d0036002e
:107d0000711021009140780070ccb30080cf5000fa
:107d100004003e0007d1bf000040e80007f1b700b3
:107d200005003700408080000030a00040808800bf
:107d3000010037000771ef00008080000000e000c4
:107d40006b0032001e30ef0001818000301f2000e8
:107d5000808f500003003e00008180000000e8009a
:107d60000081880000818000e10f500003003a008c
:107d70000080800000f0a00000808800008180006a
:107d8000e50f500001003a006d70ef0001818000a6
:107d900030022000808f500001003a006870ef0030
:107da00001818000301f2000808f50008400360049
:107db000c0728000700060000000e000030032002c
:107dc000008080000000a10000808800008080000a
:107dd0000010a10000808800118080003051200038
:107de000808f500003003e00008080000020a10032
:107df00000808800008080000030a10000808800a2
:107e000043d0bf000004e000030032000080800087
:107e10000040a100008088006100210091407800ae
:107e2000e0c7b30080cf500003003e000080800018
:107e30000050a10000808800008080000060a10048
:107e40000080880015d0bf000080fb00610060004a
:107e5000004078000004e00006003200008080004e
:107e60000070a1000080880010c0b3001cf0b700b3
:107e7000010037001c70ef00a1948000c076200044
:107e8000808f500003003600008080000080a10039
:107e90000080880051808000a0232000808f500047
:107ea00003003e009cd0bf00e14f500003003a00a9
:107eb000008080000090a100008088004ad0bf00b0
:107ec0000004e000030032000080800000b0a10048
:107ed000008088000080800000a0a1000080880051
:107ee0000080800000f0a10000808800340037008e
:107ef0002030ef00f1808000301f2000808f500084
:107f000003003e00f08080000000e800f080880060
:107f1000f1808000201f2000808f50002800360054
:107f2000508180006f00500041818000810f50001f
:107f300004003600408180006f00400040818800ce
:107f40001f003700508180006f0040004181800099
:107f5000810f500004003100408180006f0050000c
:107f600040818800160037004081800040818800f1
:107f7000708180000080e90061818000810f5000e5
:107f800004003600608180000080e8006081880085
:107f90000b003700708180000080e8006181800064
:107fa000810f500004003100608180000080e900f2
:107fb0006081880002003700608180006081880055
:107fc000408080000000e000470032008630ef0073
:107fd00041848000301f2000808f500003003e004d
:107fe000408480000000e8004084880040848000d5
:107ff000e10f500004003a005aeea90040808000d2
:108000000070a0004080880040848000e20f500093
:1080100005003a00ba23ef0010002000001e88007f
:108020009d83a8009e43a90040848000ea0f500071
:1080300001003a006c70ef0041848000301f200086
:10804000808f50005a00360051808000802520002b
:10805000808f500003003600408080000000a100a7
:10806000408088005180800030512000808f500077
:1080700003003e00408080000010a1004080880086
:10808000408080000020a100408088004080800067
:108090000030a10040808800d1838000505420002f
:1080a000808f500003003e00408080000040a1000f
:1080b00040808800408080000050a10040808800ff
:1080c0001ad0bf00e14f500003003a00408080000a
:1080d0000060a10040808800408080000070a10006
:1080e00040808800320037008830ef003184800003
:1080f000b05d2000808f500003003e00308480007f
:108100000000e800308488003184800000192000dd
:10811000808f500002003a0010c0b3006cf0b7002e
:1081200031848000401f2000808f50000a003a00f8
:10813000709480005084880051848000b083800057
:10814000808f500002003600b08380005084880089
:108150009d83a9009e43a80031848000401f200019
:10816000808f50000a00360051848000b083800068
:10817000808f500004003100508480006a0040006d
:1081800050848800020037005084800050848800aa
:10819000408080000000e00005003a00318480004b
:1081a000b05d2000808f5000010036005aeea8001c
:1081b000b180800040512000808f500003003600c5
:1081c00040512000b080880006003700b180800058
:1081d00070252000808f500002003e008025200086
:1081e000b080880071828000b08080000100b800fb
:1081f000c60add004a00de0000807200ca08de0008
:108200000000780050818800c1808000800c200030
:10821000808f500002003600800c2000c080880053
:10822000c0808000f30f500002003e00400120009b
:10823000c080880081808000f07c2000808f50000a
:108240000a003e00808080008000eb008cf4070074
:108250003233230033fb2300b0f407006df4070032
:1082600000007800408888000d0037008180800081
:10827000407e2000808f5000090036008080800002
:108280008000eb007ef4070002d5280073fb23007a
:10829000a2f407005ff4070000007800408888001f
:1082a0004188800040ce2000808f500002003600c0
:1082b00040ce20004088880041888000703e200029
:1082c000808f500002003e00803e200040888800e1
:1082d000408880002081880081808000908c200070
:1082e000808f500011003e0081808000c04420003b
:1082f000808f50000a0036008180800040bb2f0034
:1083000080804000908828000008b8004608de0001
:10831000004078009047b0000af1b700090037002c
:1083200090c7b3000af1b7000600370081808000d3
:10833000808e2000808f500002003600d0c7b3002e
:108340000af1b70061002100914078000ad1bf0016
:1083500080cf50001600390006d0bf008080fb009f
:108360000ad1bf000080fb0000805000c112200035
:108370000100b8000000780030818800408880004b
:108380000019b10031818000810f500003003100dd
:10839000408880000019b100308188004188800049
:1083a000308180000080500030818800020037005a
:1083b00040888000308188002181800030818000e9
:1083c000808f5000020036003081800020818800bc
:1083d000108080000001e80021818000400620001c
:1083e000000ab80044079800550798004e02900014
:1083f000de0290000500090042aad80070818800c2
:1084000071818000c0808000808f500002003600a3
:10841000c08080007081880091828000708180001f
:108420000100b800c60add004a00de0000807200cc
:10843000ca08de00000078006009b0007081880082
:1084400042d0bf000040e80042f0b70042d0bf0079
:10845000f44f500013003a004270ef00202b21002f
:1084600080c0eb0001487800302b210051c5b300db
:1084700001487800c101210091407800402b210083
:1084800001487800402b21001040780042c5b3001d
:1084900082404000502b21000148780010c0b300fa
:1084a00040f0b70043d0bf000004e00004003200f9
:1084b00043d0bf000040e90043f0b700030037009d
:1084c000008080000040a0000080880044d0bf00f1
:1084d0000004e0000600320044d0bf000040e90084
:1084e00044f0b70010c0b30041f0b700ac00370053
:1084f00041d0bf00e14f5000a9003a004170ef00a9
:108500003fd0bf00e84f50009e003a00602b210092
:1085100010407800e14f40009a003a00702b210093
:108520009040780050c5b30080cf500095003a00cd
:108530008040eb000e00e80001487800602b21002d
:1085400090407800702b21001040780080c04000df
:10855000802b21001040780080c04000902b21002b
:108560001040780080c04000a02b2100104078000f
:1085700080c04000b02b21001040780080c0400037
:10858000c02b21001040780080c04000d02b21007b
:108590001040780080c040000e00e80001487800dc
:1085a000e02b2100904078000e00e8001040780099
:1085b00080cf500073003a0060c9b30043f0b700a9
:1085c000802b2100104078000ef0b700902b210086
:1085d000104078000080fb00c800dd00a02b2100c7
:1085e000104078000080fb00808040000e80e80092
:1085f000010878000e80e800100078008000eb0091
:108600009ff307001cf5070092fd2500131d2400b1
:10861000c2f307007ff307000e81e800000978002d
:108620000e80e800100078006101b80060888000ca
:1086300071888000020040008380480060888800c4
:108640007188880010d1bf000040e80010f1b70029
:1086500010d1bf00e74f50000b003600608880004b
:1086600071888000cd09dd004300de0000807100cc
:10867000c308de0000007800808088001071ef00e1
:108680000c31ef000e31ef00b02b210010407800cc
:108690008080fb0064004700010878006400470008
:1086a00010007800c800dd00640047000108780071
:1086b000c02b2100104078000080fb00e400470040
:1086c0009100780081007000640047000108780084
:1086d00064004700100078008000eb0068f307009a
:1086e000e5f4070042692f00230024008bf3070004
:1086f00048f3070064014700000978006400470060
:10870000100078006101b80090888000a188800086
:10871000020040008380480090888800a18888007b
:108720001bd1bf000040e8001bf1b7001bd1bf0008
:10873000ff4f50001000360090888000a188800014
:108740004b0add004500de0000007200c508de00b7
:1087500000007800650050009080880090808000c4
:108760000000e00001003a001230ef001b71ef0042
:108770001231ef001431ef00d02b210010407800af
:1087800014f0b7003f70ef00602b21008040eb0039
:1087900001487800702b21008040eb0001487800f0
:1087a00049d0bf000040e80049f0b70049d0bf0001
:1087b000f44f500070003a004970ef00f02b210098
:1087c00080c0eb0001487800002c210051c5b300a7
:1087d00001487800e100210091407800102c210030
:1087e00001487800808080004800de0080407800ea
:1087f000202c210001487800808080008040780093
:10880000302c210001487800908080004800de0074
:1088100080407800402c2100014878009080800042
:1088200080407800502c210001487800410121004f
:1088300091407800602c2100014878000080800081
:108840004800de0080407800702c2100014878004c
:108850000080800080407800802c21000148780052
:10886000108080004800de0080407800902c2100bd
:10887000014878001080800080407800a02c210002
:1088800001487800208080004800de0080407800a9
:10889000b02c2100014878002080800080407800c2
:1088a000c02c21000148780061002100914078002f
:1088b000d02c210001487800408080004800de0074
:1088c00080407800e02c2100014878004080800042
:1088d00080407800f02c2100014878005080800012
:1088e0004800de0080407800002d2100014878001b
:1088f0005080800080407800102d210001487800d1
:10890000608080004800de0080407800202d21003b
:10891000014878006080800080407800302d210080
:1089200001487800402d21008040eb00014878008c
:108930000040eb00004f78000a003700402d210076
:10894000904078001e80fb00f22b210000004100c7
:108950001040780080c04000402d21000148780080
:108960001e4fe8001e407800f44f5000f3ff360021
:1089700010c0b30047f0b7004ad0bf000004e000c9
:10898000040032004ad0bf000040e9004af0b700be
:10899000060037000080800000b0a0000080880042
:1089a000008080000070a000008088004bd0bf00d5
:1089b0000004e000060032004bd0bf000040e90098
:1089c0004bf0b70010c0b30048f0b7007ff9370094
:1089d00048d0bf00e14f50007bf93a004870ef00eb
:1089e00046d0bf00e94f50006d003a00502d2100e5
:1089f00010407800e14f400069003a00602d2100ee
:108a00009040780050c5b30080cf500064003a0019
:108a10008040eb006600470001487800802d21006f
:108a20009040780070c7b30080cf500010003a002b
:108a3000902d21009040780070c7b30080cf500087
:108a40000b003a00a02d21009040780070c7b300c1
:108a500080cf500006003a00b02d210090407800f1
:108a600070c7b30080cf500001003a000000fe0044
:108a7000502d210090407800602d2100104078009a
:108a800080c04000702d21001040780080c0400060
:108a9000802d21001040780080c04000902d2100e2
:108aa0001040780080c04000a02d210010407800c8
:108ab00080c04000b02d21001040780080c04000f0
:108ac000c02d21001040780080c04000d02d210032
:108ad0001040780080c040006600470001487800e0
:108ae000e02d21009040780066004700104078009b
:108af00080cf50002a003a0060c9b3004af0b700a6
:108b0000702d21001040780015f0b70015d0bf007f
:108b10000080fb00620060000000e0000300320003
:108b200010c0b3009cf0b700010037009c70ef004c
:108b3000802d2100104078000080fb00b08088006c
:108b4000b08080004800dd00b0808800902d2100ba
:108b5000104078000080fb00b18080000080700031
:108b6000b0808800a02d2100104078000080fb001c
:108b7000c800dd00b02d2100104078000080fb000f
:108b800000804000c0808800c02d21001040780087
:108b90001af0b700d02d2100104078001bf0b7006c
:108ba0004670ef00502d21008040eb000148780016
:108bb000602d21008040eb000148780003f9370068
:108bc0001e11000054010000820000000500050095
:108bd000000600000600060000070000070007006e
:108be0000008000008000900000900000a000a004f
:108bf000000b00000b000c00000c00000d000e002c
:108c0000000e00000f001000001100001100120003
:108c100000130000140015000016000017001800d3
:108c2000001900001a001c00001d00001e001f009b
:108c30000021000022002400002500002700280059
:108c4000002a00002c002e0000300000310033000c
:108c50000036000038003a00003c00003e004100b1
:108c60000043000046004800004b00004e00510049
:108c70000054000057005a00005d000060006400ce
:108c8000006700006a006e00007200007500790045
:108c9000007d000081008500008a00008e009200a7
:108ca000009700009b00a00000a40000a900ae00f7
:108cb00000b30000b800bd0000c20000c700cd0036
:108cc00000d20000d700dd0000e30000e800ee0065
:108cd00000f40000fa00ff00000501000c01120082
:108ce000011801001e012400012b01003101370091
:108cf000013e010044014b000151010058015e009a
:108d0000016501006c01720001790100800186009b
:108d1000018d010094019b0001a10100a801af0099
:108d200001b60100bc01c30001ca0100d101d70096
:108d300001de0100e501eb0001f20100f901ff0095
:108d4000010602000c021300021902002002260094
:108d5000022c020032023900023f020045024b00a1
:108d60000251020057025d000263020068026e00b9
:108d70000274020079027f00028402008a028f00de
:108d80000294020099029e0002a20200a602ab0019
:108d900002000000721200006e000000800000005f
:108da00000100000160100008000000016110000f5
:108db0000600000082000000010304000506020016
:108dc000e01200000400000082000000ffffff002e
:108dd000ff000000e412000002000000800000001c
:108de0001c110000020000008000000000000000d4
:108df000ffffff00ffffff00ffffff00ffffff007f
:108e0000ffffff00ffffff00ffffff00ffffff006e
:108e1000ffffff00ffffff00ffffff00ffffff005e
:108e2000ffffff00ffffff00ffffff00ffffff004e
:10a000000000fa00ffff37000000fa00ffff3700f2
:10a010002600fa00881f780000802c000110200024
:10a020009ce80700008fbe0050052000a10a200018
:10a03000f6e707001e00be0023e80700e400470023
:10a040008048780064004700104078000004a200b7
:10a050000004e00001003200e9ff07003023220085
:10a0600011012000660147000089be0060562500ee
:10a07000410420006a0147000089be00c0bc2b00db
:10a08000a10a20006e0147000089be00f0ef2e00fb
:10a09000d10d2000720147000089be006a00470010
:10a0a0001001be00660047001000be000202be00a4
:10a0b0000001be001e00be0011e80700e4004700da
:10a0c0008048780064004700104078000084fb005e
:10a0d000720047001001be006e0047001000be0075
:10a0e00044002000050020003e034200ae834a00e9
:10a0f0000202be000001be000600be0000e807002c
:10a100000080fb000000640000f0a7000000ea00ef
:10a110000000ea00cf00de0064004700014878003c
:10a1200064004700104078000004a2000004e00032
:10a1300001003200b2ff0700b9e707001e00be00b1
:10a14000d4e70700760147000089be002200200006
:10a15000030020003e004100ae804900cde707002b
:10a160007a0147000089be0044002000050020005d
:10a170003e004200ae804a00c6e707007e0147006d
:10a180000089be0062002000030020003e00410064
:10a19000ae804900bfe70700220220000e01410007
:10a1a0000089be00660047001001be00760047002f
:10a1b0001000be00800f5100818f590016003a0038
:10a1c0006a0047001001be007a0047001000be0080
:10a1d000800f5100818f59000f003a006e00470038
:10a1e0001001be007e0047001000be00800f51002d
:10a1f000818f590008003a00720047001001be002c
:10a20000200220000e0040001000be00800f510010
:10a21000818f5900010032007bff07004f04780056
:10a220000080fa00000006000e00fa0000802c00fa
:10a230000110200017e80700640147000089be00f4
:10a2400050052000a10a200070e7070064004700c5
:10a250001000be009ce70700e80047008048780037
:10a2600068004700104078000004a2000004e000ed
:10a270000100320062ff07006000b800008fbe00de
:10a280001800370024002000050020003e01420095
:10a29000ae814a00640047001000be003e0240004c
:10a2a000ae8248000400be000202be001e01be00d5
:10a2b00093e70700e80047008048780068004700ff
:10a2c000104078000004a2000004e0000100320009
:10a2d0004bff070042002000030020001e0f41003a
:10a2e0005e974900f07f2000010020001e01be00a3
:10a2f000800f5100818f5900e2ff360048e70700c8
:10a300006000b800008fbe001200370064004700f4
:10a310001000be003e024000ae8248000400be00b5
:10a320005ce707006a0147000089be006a00470039
:10a330001000be00be0f5000ae8f5800010032006a
:10a3400031ff070022002000030020001e0f410003
:10a350005e974900f07f2000010020001e01be0032
:10a36000800f5100818f5900e8ff36000080fa000d
:10a37000000006000000fa0025ff0700aaff070002
:10a380000080fa00000006000600fa000e81e800d6
:10a390000089be0010c0b300004f780050052000b7
:10a3a000a10a200019e707000e80e8001000be0097
:10a3b00045e70700004f780019e707000080fa0022
:10a3c000000006001200fa00889fbe006a024700e3
:10a3d000008abe006e0047000288be0010c0b300b5
:10a3e000004f780050052000a10a200007e7070071
:10a3f0006e0047001001be00f0ff2f00f10f20009b
:10a400000202780003017800800178008100780062
:10a41000030062008100610081047800000478007c
:10a420000800be000e81e8000089be006e004700f3
:10a430001000be004808de00010020006601470051
:10a440000089be001e84fb00660047001001be00ac
:10a450000e80e8001000be000202be000001be0037
:10a460006a0047001000be0025e707000080fb00df
:10a470000000640000f0a7000000ea000000ea000d
:10a480004f00de00004f7800e5e607001e40780030
:10a490004f04be000080fa00000006001000fa0021
:10a4a0006c0147000089be006c0047001000be0030
:10a4b000f8e60700640147000089be006c00470011
:10a4c0001000be0062004000e0804800f1e6070096
:10a4d000680147000089be00640047001001be000b
:10a4e000680047001000be00c800dd00000020002a
:10a4f000001f7100019771001e00be000080fa006d
:10a5000000000600f8ffff00ffffff007bffff00d9
:10a51000ffffff00ff7fff00ffffff00ffffff00c7
:10a52000ffffff00dfffff00ffffff00ffffff0057
:00000001FF
