:020000040001f9
:1040000058a40400000000000000fe00822d2100e2
:104010000019780001097800000006000000fe0089
:104020000000eb008000eb00f8ff0700d628ef004f
:10403000000006000000fe000000fe00801f780067
:10404000811f7800821f7800812d21001246800098
:10405000c3e8a90031007800b0468800110078005c
:10406000b0468800d1e8a800000000000000000071
:10407000d1e8af00feff370002f0a700c3e8a800b8
:104080004f017800cf0078004f0078000000060054
:104090000000fe00a2028000a10288009080ba0009
:1040a0001000ba00a2028800000006000000fe0016
:1040b000a2028000a10288001000ba00a2028800bb
:1040c000000006000000fe00f27f200000016100f9
:1040d00008003a003200240082468800904688009a
:1040e000a14688001ea00200000000001000200071
:1040f000d1a8af0000002000000006000000fe0074
:10410000d1e8af00feff37000000a7001300370022
:104110000010a70011003700a146880090468800d3
:104120001000240080468800a0028000a10f20001b
:10413000a1028800010020008208bb008398bb0018
:104140008408bb008598bb001ea002000000000090
:10415000a002880010002000d1a8af0000002000bd
:10416000000006000000fe00d1e8af00feff3700af
:104170000000a700140037000010a700120037004d
:10418000a146880090468800a1028000100024000b
:1041900080468800a00f2000a002880000002000b8
:1041a0000208bb00f20f20000298bb000308bb000e
:1041b0000298bb001ea0020000000000a1028800bf
:1041c00010002000d1a8af00000020000000060071
:1041d0000000fe00d1e8af00feff3700f30f200023
:1041e0008081610009003a0090468800a14688005d
:1041f0002000240080468800c24688001ea00200dd
:104200000000000010002000d1a8af000000200036
:10421000000006000000fe00d1e8af00feff3700fe
:10422000f30f20008081610015003a00904688005d
:10423000a14688001000240080468800a00f2000be
:10424000a00288000000200001082000f40f2000d8
:104250003208bb000498bb003208bb000490bb00ce
:104260001ea0020000000000d2a8ec00d2a8ec00c2
:104270002100b100f6ff3a0010002000d1a8af00e5
:104280000000200000000600f27f20000000610016
:104290000000060002802f0000006100f2ff2f00e6
:1042a0008100610000000600ffffff00ffffff002c
:1042b000ffffff00ffffff00ffffff00ffffff000a
:1042c000ffffff00ffffff00ffffff00ffffff00fa
:1042d000ffffff00ffffff00ffffff00ffffff00ea
:1042e000ffffff00ffffff00ffffff00ffffff00da
:1042f000ffffff00ffffff00ffffff00ffffff00ca
:10430000ffffff00ffffff00ffffff00ffffff00b9
:10431000ffffff00ffffff00ffffff00ffffff00a9
:10432000ffffff00ffffff00ffffff00ffffff0099
:10433000ffffff00ffffff00ffffff00ffffff0089
:10434000ffffff00ffffff00ffffff00ffffff0079
:10435000ffffff00ffffff00ffffff00ffffff0069
:10436000ffffff00ffffff00ffffff00ffffff0059
:10437000ffffff00ffffff00ffffff00ffffff0049
:10438000ffffff00ffffff00ffffff00ffffff0039
:10439000ffffff00ffffff00ffffff00ffffff0029
:1043a000ffffff00ffffff00ffffff00ffffff0019
:1043b000ffffff00ffffff00ffffff00ffffff0009
:1043c000ffffff00ffffff00ffffff00ffffff00f9
:1043d000ffffff00ffffff00ffffff00ffffff00e9
:1043e000ffffff00ffffff00ffffff00ffffff00d9
:1043f000ffffff00ffffff00ffffff00ffffff00c9
:10440000f8a904000000000000a204000000000061
:1044100000a204000000000000a204000000000050
:1044200000a204000000000000a204000000000040
:1044300000a204000000000000a204000000000030
:1044400052a504000000000000a2040000000000cb
:1044500000a204000000000000a204000000000010
:1044600000a204000000000000a204000000000000
:1044700000a204000000000000a2040000000000f0
:1044800000a204000000000000a2040000000000e0
:1044900000a204000000000000a2040000000000d0
:1044a00000a204000000000000a2040000000000c0
:1044b00000a204000000000000a2040000000000b0
:1044c00000a204000000000000a2040000000000a0
:1044d00000a204000000000000a204000000000090
:1044e00000a204000000000000a204000000000080
:1044f00000a204000000000000a204000000000070
:1045000000a204000000000000a20400000000005f
:1045100000a204000000000000a20400000000004f
:1045200000a204000000000000a20400000000003f
:1045300000a204000000000000a20400000000002f
:1045400000a204000000000000a20400000000001f
:1045500000a204000000000000a20400000000000f
:1045600000a204000000000000a2040000000000ff
:1045700000a204000000000000a2040000000000ef
:1045800000a204000000000000a2040000000000df
:1045900000a204000000000000a2040000000000cf
:1045a00000a204000000000000a2040000000000bf
:1045b00000a204000000000000a2040000000000af
:1045c00000a204000000000000a20400000000009f
:1045d00000a204000000000000a20400000000008f
:1045e00000a204000000000000a20400000000007f
:1045f00000a204000000000000a20400000000006f
:1046000000a204000000000000a20400000000005e
:1046100000a204000000000000a20400000000004e
:1046200000a204000000000000a20400000000003e
:1046300000a2040000000000daa90400000000004d
:10464000b8a904000000000000a20400000000005f
:1046500000a204000000000000a20400000000000e
:1046600000a204000000000000a2040000000000fe
:1046700000a204000000000000a2040000000000ee
:1046800000a204000000000000a2040000000000de
:1046900000a204000000000000a2040000000000ce
:1046a00000a204000000000000a2040000000000be
:1046b00000a204000000000000a2040000000000ae
:1046c00000a204000000000000a20400000000009e
:1046d00000a204000000000000a20400000000008e
:1046e00000a204000000000000a20400000000007e
:1046f00000a204000000000000a20400000000006e
:1047000000a204000000000000a20400000000005d
:1047100000a204000000000000a20400000000004d
:1047200000a204000000000000a20400000000003d
:1047300000a204000000000000a20400000000002d
:1047400000a204000000000000a20400000000001d
:1047500000a204000000000000a20400000000000d
:1047600000a204000000000000a2040000000000fd
:1047700000a204000000000000a2040000000000ed
:1047800000a204000000000000a2040000000000dd
:1047900000a204000000000000a2040000000000cd
:1047a00000a204000000000000a2040000000000bd
:1047b00000a204000000000000a2040000000000ad
:1047c00000a204000000000000a20400000000009d
:1047d00000a204000000000000a20400000000008d
:1047e00000a204000000000000a20400000000007d
:1047f00000a204000000000000a20400000000006d
:1048000000a204000000000000a20400000000005c
:1048100000a204000000000000a20400000000004c
:1048200000a204000000000000a20400000000003c
:1048300000a204000000000000a20400000000002c
:1048400000a204000000000000a20400000000001c
:1048500000a204000000000000a20400000000000c
:1048600000a204000000000000a2040000000000fc
:1048700000a204000000000000a2040000000000ec
:1048800000a204000000000000a2040000000000dc
:1048900000a204000000000000a2040000000000cc
:1048a00000a204000000000000a2040000000000bc
:1048b000cf2d21000eff26000e0188000000000011
:1048c000000020000000e000020032000001200093
:1048d0002002880014000700c70207000000e00063
:1048e00003003a0080ec2b0001002000020037009a
:1048f0000000200001002000810f70000100320044
:104900000f000700000020000000e000020032005d
:10491000000002000000000030ad020000000000b6
:104920000040da000000fe00200020000000e0004f
:1049300002003200100020009001880000000600f4
:10494000a1028800800478000000eb001f003700ff
:10495000e284440054a0b4009905ba00e284440003
:1049600054a0b4009906ba00e284440054a0b400f4
:104970000006eb00476fde00fd07b200ae018800c5
:10498000636ce10003003a000ad801000000eb006c
:104990000e003700606ce10008003a00004deb00ab
:1049a0000a05e800020039003420ec000af0a000fb
:1049b0008b05e900f9ff3e00040037006168e10063
:1049c000010032000086eb000b00070019c7ba0097
:1049d0001905ba000e04e00003003a000a00e000e6
:1049e000dbff3a0000000600fe07b200ae028800be
:1049f0008a047800f5ff37000cd0a300e20f4d00c9
:104a00001c003b0089027800354dba000a05e80019
:104a1000020039003420ec000af0a0008b05e90008
:104a20000f003200254dba000a05e80002003900e7
:104a30003420ec000af0a0008b05e90008003200e9
:104a40000c00e0000600320015cdba000a05e800af
:104a5000020039003420ec000af0a0008b05e900c8
:104a60008984e80054a0b4000b00e000e2ff3a00a3
:104a7000000006009902ba00055d78008b05e90088
:104a8000f7ff3200c82ade00055d78008b05e900db
:104a9000f3ff32000c00e000f1ff320019ddba0034
:104aa000eeff37003600f800809fbe00829fbe00f8
:104ab000849fbe00869fbe000800fa000028a9005f
:104ac000048080000400e0002800320031a3a80028
:104ad0003183a80067a3a8006783a8003263a900f8
:104ae0003243a9006863a9006843a900409c2000e4
:104af00050188800501880000000d100401888002d
:104b00005118800050d02000010050005118800042
:104b10000088b8000001be00220798003307980003
:104b2000c2da20002e029000be02900005000900ab
:104b300042aad800601a8800501880004200de00a7
:104b4000a01a8800501880004200de00a01a8800d9
:104b50000180800000002100008060000000e00073
:104b6000e80032000000fe00e60037008406210065
:104b7000144278000404e00020003a0065948000ac
:104b8000547f2000848f520004003600659480001a
:104b9000b4802f00048f4200020037000002eb00b7
:104ba000040f7800548380001e0378000432b8009c
:104bb000462bdd004a22de0004027300ca2ade0012
:104bc0000e83e800040b7800559380000e82e80005
:104bd00014027800848f52000800360014c0b3001d
:104be00004437800d5062100864a780014c0b3003b
:104bf0000443780085062100864a7800f58080000d
:104c0000341f2000848f520012003a005493800019
:104c10004481880045818000d4828000848f5200c6
:104c200002003600d4828000448188000483800022
:104c30006481880031a3a9003183a90067a3a9007a
:104c40006783a9003263a8003243a8006863a80004
:104c50006843a800f5808000241f2000848f520044
:104c6000a600360064938000e322b900f58480003a
:104c7000050242004222de00048588006493800021
:104c8000f48488004581800054938000048252009f
:104c9000b481880065818000048580000482520010
:104ca000d4818800b5818000c481800004825200d4
:104cb0000504200005a3b900b5818000040420008c
:104cc00004aab9000602420087824a00c628dd0015
:104cd0004a21de0002817000caa9de0002017800cc
:104ce00082818800d3818000e281800002815100ae
:104cf000a30020000392b900d3818000620020004d
:104d00000299b9000401410085814900461add007d
:104d10004a10de0000007200ca98de000000780031
:104d200090818800b0818000c0818800d08180009f
:104d3000e08188008081800091818000810f500097
:104d4000010034000100780051188000010040008b
:104d5000a0818800a1818000c0572100808f500071
:104d600003003400c0572100a081880006003700ee
:104d7000a1818000309c2000808f500002003c0008
:104d8000409c2000a08188004181800050818000eb
:104d9000808f500016003100b0818000e50f400088
:104da00008003d0061938000700c2000808f50004f
:104db00004003e0031a3a8003183a80067a3a80027
:104dc0006783a800b0818000e10f50001c00340010
:104dd000008080000000e00019003a0031a3a90023
:104de0003183a90067a3a9006783a90014003700d5
:104df000a1818000809c2000808f500005003c0035
:104e000031a3a8003183a80067a3a8006783a80086
:104e10000b003700a1818000e09c2000808f5000b3
:104e200007003400008080000000e00004003a0029
:104e300031a3a9003183a90067a3a9006783a90052
:104e4000f01a80000000a000f01a880050188000be
:104e500010858800a08180005018880050188000bc
:104e60000000d100401888005118800050d0200068
:104e7000808f5000020036004c23ef0011003700f5
:104e80005118800050d020000100500051188000bf
:104e90000088b8000001be00220798003307980080
:104ea000c2da20002e029000be0290000500090028
:104eb00042aad800601a880002003700f01a800069
:104ec00020858800711980000002200000806000a9
:104ed0000000e000f9ff3a0020858000401fb0008c
:104ee00011858000810f50000600310050188000ad
:104ef0004200de00a01a8800020037003830ef00c0
:104f00003c30ef0031848000301f2000808f500043
:104f100050003600518480003094800000805000a2
:104f2000708488006184800080938000008050003d
:104f3000a08488003194800050848000c012b100a9
:104f4000808f5000090031007184800080848000cf
:104f5000008050008080d100708480004380de009b
:104f60000080400090848800160037003194800053
:104f700050848000c012b000808f500009003100c2
:104f8000718480008084800000805000c280de0038
:104f9000708480004380de000080400090848800a0
:104fa00008003700718480008084800000805000f9
:104fb000c200dd00708480004200dd0000804000ff
:104fc00090848800a1848000b0848000008050001c
:104fd0008080d100a08480004280de0000804000fc
:104fe000c08488007084800080848800a084800051
:104ff000b084880090848000c1848000810f5000bc
:105000000100340001007800d11d80000100400043
:10501000d0848800d08480000000e00001003d00c2
:105020009a30ef00d0848000c1838000810f50004f
:1050300002003600c0838000d0848800d0848000c5
:10504000d01d8800d01d80000000d100001e880007
:10505000020037009030ef009630ef00c072800001
:10506000700060000000e00003003a000080800053
:105070000000a00000808800f1808000201f200038
:10508000808f50002b00360010838000c012b000cb
:1050900041818000810f500014003600b1818000f2
:1050a000c0122000808f50000e003400610a2100e1
:1050b0009140780020c3b30080cf50000400360038
:1050c000a6d0bf000040e800a6f0b70019003700e6
:1050d000008080000010a00000808800a670ef0013
:1050e00014003700a670ef001200370051938000c3
:1050f00010838000808f50000d003100710a210064
:105100009140780010c3b30080cf500004003e00ef
:10511000a7d0bf000040e800a7f0b70005003700a7
:10512000008080000010a00000808800010037008f
:10513000a770ef006193800030838000808f500063
:105140000d003600810a21009140780010c3b300a1
:1051500080cf500004003e00a8d0bf000040e8000f
:10516000a8f0b70005003700008080000030a000e4
:105170000080880001003700a870ef005193800084
:1051800020838000808f50000d003600910a21009e
:105190009140780010c3b30080cf500004003e005f
:1051a000a9d0bf000040e800a9f0b7000500370013
:1051b000008080000020a0000080880001003700ef
:1051c000a970ef006194800010802f0000804000e3
:1051d000e1838000810f50000d003100a10a210001
:1051e0009140780010c3b30080cf500004003e000f
:1051f000aad0bf000040e800aaf0b70005003700c1
:10520000408080000000a00040808800010037003e
:10521000aa70ef008193800000848000808f50008e
:105220000d003600b10a21009140780010c3b30090
:1052300080cf500004003e00abd0bf000040e8002b
:10524000abf0b70005003700408080000020a000d0
:105250004080880001003700ab70ef00319480007f
:1052600020848000808f50000b003600acd0bf003f
:10527000fd4f500004003e00acd0bf000040e800ed
:10528000acf0b70005003700408080000040a0006f
:105290004080880001003700ac70ef00318480004e
:1052a000301f2000808f50002a003600518480007b
:1052b00010848000808f50001400310071848000c1
:1052c000c0122000808f50000e003400d10a21004f
:1052d0009140780010c3b30080cf500004003e001e
:1052e000add0bf000040e800adf0b70019003700b6
:1052f000408080000030a00040808800ad70ef004a
:1053000014003700ad70ef001200370031948000b8
:1053100010848000808f50000d003100e10a2100d0
:105320009140780010c3b30080cf500004003e00cd
:10533000aed0bf000040e800aef0b7000500370077
:10534000408080000030a0004080880001003700cd
:10535000ae70ef000080fa004f03be004f02be00a7
:105360004f01be004f00be003600f90000400600ad
:10537000801f78000000fa0009c8a90031a3a80026
:105380003183a80067a3a8006783a8003263a9003f
:105390003243a9006863a9006843a9000080800027
:1053a00000a0a000008088000080fa004f00780074
:1053b00000400600801f78000000fa0009a8a9003c
:1053c0009d83a8009e43a900ba23ef00d01d800052
:1053d0000000d100001e8800408080000050a00026
:1053e000408088000080fa004f00780000400600ee
:1053f0000040da000000fe00000005000001be00d1
:105400001b0007000470a70003f0a10003f8a3002d
:1054100013003a006509b1001000320009003500a0
:105420006928e100020035000100280000000500a5
:1054300000004000818048008502e900fcff3a003e
:1054400000000600f88f4200050035008100d10001
:105450000080d3008502e800fcff3a00000006004f
:105460008000eb00000005006011b8002701370044
:10547000c70ade00f107b200f50fb20008003200e3
:10548000e1cf4200020032000170a00024000500bc
:10549000810f70000100320004080500440005007f
:1054a000810f700002003a00140005008502e90037
:1054b0000000400081c04800fcff3b000170a000dc
:1054c000240005006022b800060220000000d00081
:1054d0008180d2000482d2008582d2000000a00028
:1054e0000202520083825a0003003100020242008d
:1054f00083824a000000a1000603e900f3ff3a009e
:10550000000006000383680007002800070363000b
:10551000470ade000480a100c71ade000580a10052
:10552000f70f20000720e100420032000728e100c9
:1055300040003200889fbe008a9fbe008c1f78000a
:10554000f107b200f307b2000400e000640032008b
:105550000170a0000500e000680032000370a000a8
:1055600085054200eb07b1000204b8000302b80051
:105570008484440060854a00020ab80084844400a0
:105580000a854a00030ab8000405450004003300f8
:105590000804d0008984d2000a85d2008b05e90076
:1055a0006158e1003d003500021020000901610052
:1055b0000308200089816100f707200087836400c9
:1055c00008867300c84cde00c853dd008784740071
:1055d0004855de000300e00006003200820376003a
:1055e000040032008904e80060054d000a88a30029
:1055f0000c003a00f70f20000758e10044003d007e
:105600000a70a100c75ddd000a8575008a0073007d
:10561000090078004f0678004f05be004f04be0019
:10562000000006000a05d1008984d3008b05e8003c
:10563000f0ff3700881f780006047800900007000c
:10564000070278000001fd008101fd008c000700c9
:1056500087027800850372000778a30005003200f6
:105660000001fd008101fd009f0007004f0478004c
:1056700000000600850372000748a3000300320003
:10568000f0ff2f00f1ff2700f8ff37000000200097
:1056900001f8270088807000f4ff37008801780047
:1056a0004848dd00808171004848de00c850dd00b8
:1056b00001007000c850de00060478000b0178007d
:1056c0001600070088807000d2ff37000500e00058
:1056d00005003200170020003a0007009dff370048
:1056e00081037000f9ff3a00860078004f067800c9
:1056f0004f05be004f04be0000000500830371008b
:10570000f9ff3200270020002e00070094ff370029
:1057100001f8270086807000f4ff37000100e000e8
:1057200026003200610111007810e10023003c00e6
:105730006022b8007010e10004003500800278009b
:10574000010078008000eb00700151000200e000d1
:105750000900340070031100062add00822ade00f1
:105760008603dd00878272000200de00860bdd000a
:10577000070070008208de0084817100f4ff2700ba
:105780000482620084817100040028008482620027
:105790006102600005f0a6000000060004827100ae
:1057a000070032000000e800e0804800000006002a
:1057b0000002be006000b800efff37006000b800d4
:1057c00000000600889fbe000004eb006138e10085
:1057d00016003a000100e00008003a00c800de00b0
:1057e0004800dd00880020000100e00003003a00ce
:1057f000c800de004800dd00680444008184cf005a
:10580000e9845400060034008908dd00f0831400a8
:105810008703de00878070000900dd000904440072
:10582000610214004f04be00000006000300e00007
:1058300008003a00c811de004811dd008800200091
:105840000300e00003003a00c811de004811dd004b
:10585000680444008384cf00e984540006003400c7
:105860008919dd00f08314008713de008781710041
:105870000911dd0009044400e1021400e9ff3700ca
:105880002700200001f0a70017002000470bde00d2
:10589000f60fb200040032000643e8000a003200ae
:1058a0004702b3000000060001037800f607b200cb
:1058b0000603700002003a000703b3000000060070
:1058c0008702b3000000060001037800f607b2006b
:1058d00006037000020032000770a00000000600fe
:1058e0000760a000000006000478a3000400320056
:1058f0000578a300030032000168a30001003a000c
:105900000200be000160a00000000600889fbe00eb
:105910008a9fbe0000827000040271000482710040
:10592000260032000004be000200be006011b80074
:105930006b092000950220000182cf000a00390087
:105940000541b1000082cf00070039000541b100d8
:105950000982cf00040039000541b1000882cf0060
:10596000010039000541b100054252001200320029
:105970000a003b0082817100610164008100d10056
:105980000080d3008984d3000884d3008b05e8000d
:105990000442e800f7ff3a0007003700080444001b
:1059a00089844c0000004800818048008b05e90094
:1059b0000442e900f9ff3a00030007004f05be006a
:1059c0004f04be00000006008100200061805500e9
:1059d0000b003d000b00200061fe2f000100e100e4
:1059e0001d00340082817100610164008904d100ce
:1059f0000884d3000000e800faff3a00710020009c
:105a000061006400030070000200600009003200c1
:105a100061044400e0844c000988a50005003200c0
:105a20008b05e8006808e10002003a008904d10013
:105a30000884d300f20f20000258e10005003d0069
:105a4000c75ddd00f907b2008980750008007800a5
:105a5000000006000bf827008b007800000005000e
:105a60000800fa00007c8000e0848800802fef00ae
:105a7000f0ff2000014020000100b8003263200048
:105a8000030020008ffe070000007800708288006d
:105a900030632000014020000100b800f2ff200028
:105aa0000300200087fe0700000078008082880045
:105ab000f0ff2000014020000100b800921a2000f1
:105ac000030020007ffe070000007800908288001d
:105ad000901a2000014020000100b800f2ff2000d1
:105ae0000300200077fe070000007800a0828800f5
:105af000c0632000014020000100b800f27f2000b8
:105b0000030020006ffe070000007800b0828800cc
:105b1000f0ff2000014020000100b800c263200017
:105b20000300200067fe070000007800c0828800a4
:105b300071828000405120000100b8004609dd005c
:105b40004a00de0000007100ca08de000000780094
:105b5000d082880071828000802520000100b8007a
:105b6000c609dd004a00de0000807100ca08de00c0
:105b700000007800e08288007182800040152000db
:105b80000100b800460add004a00de000000720095
:105b9000ca08de0000007800f08288007182800070
:105ba000400120000100b800c60add004a00de0006
:105bb00000807200ca08de000000780000838800c0
:105bc00071828000605420000100b8004609dd00a9
:105bd0004a00de0000007100ca08de000000780004
:105be0002083880071828000602220000100b800bc
:105bf000c609dd004a00de0000807100ca08de0030
:105c0000000078001083880091828000c017200077
:105c10000100b800460add004a00de000000720004
:105c2000ca08de000000780030838800718280009e
:105c3000b08280000100b800c60add004a00de0024
:105c400000807200ca08de000000780050838800df
:105c5000f0ff2000014020000100b800a2622000f7
:105c60000300200017fe0700000078007083880002
:105c7000a0622000014020000100b800f2ff2000d7
:105c8000030020000ffe07000000780080838800da
:105c9000f0ff2000014020000100b8008210200029
:105ca0000300200007fe07000000780090838800b2
:105cb00080102000014020000100b800f2ff200009
:105cc00003002000fffd070000007800a08388008b
:105cd00071838000405120000100b8004609dd00ba
:105ce0004a00de0000007100ca08de0000007800f3
:105cf000b083880091838000800c20000100b800f0
:105d0000c609dd004a00de0000807100ca08de001e
:105d100000007800608488006000b800000078000f
:105d2000e08388006000b80000007800f0838800fd
:105d300091838000a00f20000100b800460add001a
:105d40004a00de0000007200ca08de000000780091
:105d50000084880071838000c05d20000100b800cd
:105d6000c60add004a00de0000807200ca08de00bc
:105d7000000078002084880071838000c05d2000ce
:105d80000100b8004609dd004a00de000000710095
:105d9000ca08de000000780010848800317c800092
:105da00000fc2f00008060000000a000307c880014
:105db000a3052000b0230a00880f0000517c80005a
:105dc000f0f82f00008060000050a000507c880098
:105dd000517c800080ff2f00008060000000a00048
:105de000507c88001200200080072000a1092000bc
:105df00053f8200080497800814978008249780072
:105e0000207c8000000178000200a00060042000d7
:105e10007105200043f8200080497800814978000e
:105e20008249780000000000207c80006100600052
:105e30000000e000fcff3a0000000000217c800030
:105e400000022000008060000000e000fbff320044
:105e50008f0fa800717c800000fc2f000080600084
:105e60000000a000707c8800d4072000b0240a0045
:105e7000900f0000917c8000f0f82f0000806000ff
:105e80000050a000907c8800917c800080ff2f0053
:105e9000008060000000a000907c88008fefa800c8
:105ea0001c8ea9001e8ea9003b2ea90056eea9004b
:105eb000568ea80056aea9003baea900554ea900cb
:105ec0000000eb0055052000b5468800a50a20001b
:105ed000b546880000688800a0c4b30028edb7006c
:105ee000b16c8000f00f2c00008060000080a000ea
:105ef000b06c88000000280051052000b1468800e1
:105f0000a10a2000b146880000688800d1118000f5
:105f1000f09f2f0000806000d011880039e2a800b7
:105f200090242000001288003882a80038a2a8001f
:105f30000000eb0052052000b2468800a20a2000b3
:105f4000b246880000688800b0c3b3003aedb700dd
:105f5000d16c800000fc2f0000806000b001b30015
:105f6000d06c88000000280053052000b34688004c
:105f7000a30a2000b34688000068880011788000da
:105f8000f09f2f00008060001078880001efa800cb
:105f90000003200040788800008fa80000afa80010
:105fa00051588000f0ff23000080600000f0a00046
:105fb0005058880051588000f00f2c00008060007d
:105fc00050588800b15e800000f82f00008060000b
:105fd000b05e8800d15e800000f82f000080600075
:105fe000d05e88002158800000f82f0000806000fb
:105ff000205888002403200090240a00060b00008b
:106000007158800030ff2f00008060000020a00049
:1060100070588800015c800000fe2f000080600046
:106020000020a000005c8800015c8000f00f2e00c2
:106030000080600000a0a000005c8800115c80006f
:10604000f00f2e000080600000b0a000105c8800ff
:10605000615c800000fe2f00008060000000a00056
:10606000605c8800715c800000fe2f000080600092
:106070000030a000705c8800815c8000f00f2e0072
:10608000008060000080a000805c8800915c80003f
:10609000f00f2e00008060000080a000905c88005f
:1060a0001160800000f02000010070001060880086
:1060b00001eba800000ca8000000000001608000b7
:1060c00000102000008060000000e000fbff3200b4
:1060d0000a0ba800002ca80000000000016080004e
:1060e00000202000008060000000e000fbff320084
:1060f0000a2ba80000eca80000000000016080004e
:1061000000002800008060000000e000fbff32007b
:106110000aeba80008cba80081eca800016480006d
:10612000f0f32f00008060000070a0000064880081
:106130005005200020648800a008200030648800fa
:1061400099eca800c1648000f0ff29000080600085
:1061500000d0a000c064880020942000f064880073
:1061600081eca80009c8a90029c8a80089eca800ea
:1061700041648000f0ff29000080600000d0a00092
:10618000406488004164800070fc2f000080600043
:106190000030a0004064880000fc2000706488008b
:1061a00081eca80009a8a90029a8a800001880006f
:1061b0003000b3000018880040062000e01a880074
:1061c00040062000d01a880040062000901c88005d
:1061d00040062000801c8800409c20005018880049
:1061e000501880000000d10040188800511880002d
:1061f00050d0200001005000511880000088b800e5
:106200000001be002207980033079800c2da200080
:106210002e029000be0290000500090042aad8009c
:10622000601a8800501880004200de00a01a880022
:10623000501880004200de00501c880000802c00b6
:1062400060198800900020005019880080112000fb
:10625000a019880010202e00101b88008000280044
:10626000001b880000002400301b88002be3a800de
:1062700060be2100f01d880070382100c0838800b6
:10628000ba23ef00d01d80000000d100001e88005e
:10629000b11c800070fe2f00008060000030a00064
:1062a000b01c8800b11c800080ff2f0000806000bf
:1062b000b01c8800001d80008001b300001d880014
:1062c000a103a800e11c8000f03f2f0000806000c7
:1062d000e01c88009d83a800f11c8000f0fc2f00ca
:1062e000008060000040a000f01c88009e43a800d1
:1062f0009a63a80097e3a800c1e8a900c3e8a80032
:1063000001088000f0cf2f00008060000080a00016
:106310000008880080432000400888000142800077
:10632000f0f82f008080600000062000010070005f
:10633000004288000028a9002028a80001e1a80048
:10634000a14b8000f08f2f0000806000a04b8800e0
:106350007489a90074a9a800a14b800000ff2f0038
:1063600000806000a04b8800b14b800000fe2f0031
:1063700000806000b04b880010002000504c880066
:1063800000f92500404c88000308a90075e9a80021
:106390000080800000f0a00000808800030037002b
:1063a000000000000100370000000000805980005c
:1063b000610060000000e00003003200300ba90023
:1063c0006060800050938800805980006200600007
:1063d0000000e00003003200302ba9007060800054
:1063e0006093880080598000680060000000e00031
:1063f00003003200306ba900906080008093880019
:106400008159800000002100008060000000e00051
:1064100004003200318ba900206180004200de00c0
:1064200010948800815980000000240000806000e2
:106430000000e0000300320031cba9004061800081
:106440003094880090598000620060000000e000f5
:1064500003003200322ba900706180006094880034
:1064600090598000680060000000e00003003200e6
:10647000326ba90090618000809488000140800008
:1064800000002100008060000000e00013003200e6
:1064900040d0bf00e14f500010003a000188a90031
:1064a0003ed0bf008080fb00a22a21008100410075
:1064b000914078000141780085242000824a7800cc
:1064c0000040e8003ef0b7003ed0bf00e34f500070
:1064d000020036003e70ef004070ef000140800087
:1064e00000802000008060000000e000100032000a
:1064f0000168a9003fd0bf000080fb0041242000bc
:1065000091407800e22a2100000041000148780013
:106510003fd0bf00e74f500003003e003fd0bf0018
:106520000040e8003ff0b70050c0b30044f0b700af
:106530003140800000402000008060000000e0004a
:106540001300320047d0bf00e14f500010003a0066
:106550000748a90045d0bf008080fb00722b2100b6
:1065600081004100914078000142780003f1200051
:10657000844978000040e80045f0b70045d0bf00ee
:10658000f54f5000020036004570ef004770ef00f5
:106590003140800000202000008060000000e0000a
:1065a000100032000728a90046d0bf000080fb0081
:1065b000c1f0200091407800d22c21000000410061
:1065c0000148780046d0bf00e84f500003003e006d
:1065d00046d0bf000040e80046f0b70050c0b3000e
:1065e0004bf0b700f10a210091407800b0d0bf0015
:1065f00080cf500020003100afd0bf008080fb0072
:10660000b0d0bf000080fb00008040000080d100bf
:1066100000407800b1f0b700110b210091407800e4
:1066200090cab30080cf50000200360090cab30079
:10663000b1f0b700b1d0bf000080fb008000400087
:10664000601121000080400090007800908580005b
:10665000808f500004003600b1d0bf000040e90038
:10666000b0f0b7000c003700b1d0bf000040e80028
:10667000aff0b70008003700b1d0bf000080fb00ca
:1066800060828800af70ef0090cab300b0f0b7002e
:1066900010948000908588006cd0bf000004e0005a
:1066a00005003a006dd0bf000004e00002003a008f
:1066b000228ea90001003700228ea8001140800020
:1066c00000102000008060000000e00034ff320075
:1066d0000308a90008cba800509380006101b8000e
:1066e000a0858000b18580000200400083804800c2
:1066f000a0858800b185880051938000c085800006
:10670000808f50000200360050938000c0858800c2
:1067100051938000d0858000808f500002003100ae
:1067200050938000d0858800bcd0bf000040e800b6
:10673000bcf0b700c10b21009140780020c2b3002b
:1067400080cf50001f003a00bc70ef00a28580008f
:10675000b3858000c08580008000eb0000015100ff
:1067600081815900d08580008000eb00000051003d
:1067700081805900cb0add004500de0000807200f8
:10678000c508de0000007800f08588008182800066
:10679000f08580000100b8004609dd004a00de00f7
:1067a00000007100ca08de00000078001080880038
:1067b000b430ef00b630ef00b830ef00f0ff20004b
:1067c000d0858800609380006101b8000086800059
:1067d0001186800002004000838048000086880007
:1067e000118688006193800020868000808f500091
:1067f000020036006093800020868800619380004c
:1068000030868000808f500002003100609380004d
:106810003086880010d1bf000040e80010f1b700ba
:10682000011121009140780020c2b30080cf5000b8
:106830001f003a001071ef0002868000138680006e
:10684000208680008000eb0000015100818159000a
:10685000308680008000eb000000510081805900ec
:10686000cb09dd004500de0000807100c508de00b8
:106870000000780040868800a18280004086800069
:106880000100b800460add004a00de000000720088
:10689000ca08de000000780020808800c030ef00c9
:1068a000c230ef00c430ef00f0ff200030868800d7
:1068b000609480006101b80050868000618680008d
:1068c000020040008380480050868800618688006e
:1068d0006194800070868000808f50000200360036
:1068e00060948000708688006194800080868000bb
:1068f000808f500002003100609480008086880004
:1069000011d1bf000040e80011f1b70011112100c2
:106910009140780020c2b30080cf50002b003a0095
:106920001171ef00528680006386800070868000bf
:106930008000eb00000151008181590080868000b9
:106940008000eb000000510081805900cb0add007f
:106950004500de0000807200c508de0000007800ff
:106960009086880091868000507f2000808f5000a4
:106970000500360091868000b0802f000080400026
:106980009086880001003700d230ef00b18280008d
:10699000908680000100b8004609dd004a00de0054
:1069a00000007100ca08de00000078001081880035
:1069b0001081800050808800ca30ef00cc30ef009a
:1069c000ce30ef00f0ff200080868800a086800097
:1069d0000000e800a0868800a0868000ea0f500032
:1069e0001b003600d430ef00809480006101b800b5
:1069f000b0868000c186800002004000838048008d
:106a0000b0868800c1868800d08680000000e8003b
:106a1000d0868800d186800000042000808f50003e
:106a20000b003a00da30ef00b0868000c1868000ab
:106a3000ca09dd004600de0000807100c608de00e5
:106a400000007800e0868800d630ef00d830ef00f4
:106a5000608280006101b800f086800001878000bc
:106a60000200400083804800f0868800018788008b
:106a70001187800060828000808f5000020031000a
:106a800060828000108788002187800060828000fb
:106a9000808f5000020036006082800020878800ce
:106aa00012d1bf000040e80012f1b700211121000f
:106ab0009140780020c2b30080cf500062003a00bd
:106ac0001271ef00f286800003878000108780003b
:106ad0008000eb0000015100818159002087800077
:106ae0008000eb0000005100818059004b0add005e
:106af0004500de0000007200c508de00004078009e
:106b000006f0b700de30ef00e030ef00e230ef00db
:106b1000f0ff200020878800c072800070006000b5
:106b20000000e00008003200610021009140780080
:106b3000f0c5b30080cf50000300360010c0b30092
:106b4000e6f0b7000a003700c072800070006000f5
:106b50000000e00005003200610021009140780053
:106b600090c5b30080cf500001003e00e670ef00fa
:106b700031848000b05d2000808f50000b00360013
:106b8000b10121009140780050c5b30080cf500082
:106b900006003600408080000000e00003003a005c
:106ba00010c0b300e7f0b7000a003700318480005e
:106bb000b05d2000808f500005003600b10121003b
:106bc00091407800f0c4b30080cf500001003e0037
:106bd000e770ef00e6d0bf00e14f50000300320045
:106be000e7d0bf00e14f500012003a003f2ea8004e
:106bf000e1868000b0802000808f50000a003e00b7
:106c0000e8d0bf000040e800e8f0b700e8d0bf00df
:106c1000e24f50000b003600e870ef0010c0b300e8
:106c200069f0b70008003700e870ef006970ef0006
:106c3000050037003f2ea900e870ef006970ef00f3
:106c40000100370000000000309480006101b800ae
:106c500050878000618780000200400083804800e8
:106c60005087880061878800319480007087800099
:106c7000808f5000020036003094800070878800ba
:106c80003194800080878000808f500002003100a6
:106c9000309480008087880013d1bf000040e80056
:106ca00013f1b700311121009140780020c2b300e8
:106cb00080cf50001f003a001371ef005287800010
:106cc00063878000708780008000eb000001510026
:106cd00081815900808780008000eb000000510016
:106ce00081805900cb0add004500de000080720083
:106cf000c508de000000780090878800818380004e
:106d0000908780000100b8004609dd004a00de00df
:106d100000007100ca08de0000007800d0838800ff
:106d2000ea30ef00ec30ef00ee30ef00f0ff200033
:106d300080878800809380006101b800a087800070
:106d4000b18780000200400083804800a08788004f
:106d5000b187880081938000c0878000808f5000b9
:106d60000200360080938000c087880081938000f5
:106d7000d0878000808f5000020031008093800017
:106d8000d087880014d1bf000040e80014f1b7009c
:106d9000411121009140780020c2b30080cf500003
:106da0001f003a001471ef00a2878000b3878000b3
:106db000c08780008000eb000001510081815900f4
:106dc000d08780008000eb000000510081805900d6
:106dd000cb09dd004500de0000807100c508de0043
:106de00000007800e0878800a1838000e0878000b1
:106df0000100b800460add004a00de000000720013
:106e0000ca08de000000780060808800f430ef00df
:106e1000f630ef00f830ef00f0ff2000d087880058
:106e200015d0bf000004e00003003a00008080009d
:106e30000070a000008088001ad0bf000004e000ad
:106e400003003a00408080000060a000408088007d
:106e50006100210091407800c0c7b30080cf50008e
:106e600003003600008080000050a00000808800f1
:106e70006194800070702000808f500003003e00fd
:106e8000008080000080a0000080880011808000c9
:106e900080522000808f50000d003600e10f21004d
:106ea0009140780030c6b30080cf500004003e000f
:106eb000fed0bf000040e800fef0b700050037003c
:106ec000008080000020a0000080880001003700c2
:106ed000fe70ef001180800030242000808f500071
:106ee00011003e00f1808000301f2000808f500094
:106ef0000d003600f10f21009140780070ccb300f6
:106f000080cf500004003e00ffd0bf000040e800ea
:106f1000fff0b70005003700008080000010a000df
:106f20000080880001003700ff70ef0021808000a2
:106f3000e0152000808f50000d0036000110210068
:106f40009140780070ccb30080cf500004003e0028
:106f500000d1bf000040e80000f1b7000500370095
:106f6000008080000030a000008088000100370011
:106f70000071ef005180800030242000808f50008d
:106f80000f003e00111021009140780070ccb3003a
:106f900080cf500004003e0001d1bf000040e80057
:106fa00001f1b700070037000080800000808800f2
:106fb000408080000000a000408088000100370071
:106fc0000171ef005180800080572000808f5000b9
:106fd0000d003600211021009140780070ccb300e4
:106fe00080cf500004003e0002d1bf000040e80006
:106ff00002f1b70005003700408080000010a000bb
:1070000040808800010037000271ef00618080003d
:10701000c00d2000808f50000d003600311021007f
:107020009140780070ccb30080cf500004003e0047
:1070300003d1bf000040e80003f1b70005003700ae
:10704000408080000020a0004080880001003700c0
:107050000371ef00d183800080572000808f5000a3
:107060000d003600411021009140780070ccb30033
:1070700080cf500004003e0004d1bf000040e80073
:1070800004f1b70005003700408080000040a000f8
:1070900040808800010037000471ef00d183800038
:1070a000703e2000808f500011003e00318480002f
:1070b000401f2000808f50000d003600511021002d
:1070c0009140780070ccb30080cf500004003e00a7
:1070d00005d1bf000040e80005f1b700050037000a
:1070e000408080000030a000408088000100370010
:1070f0000571ef00008080000000e00064003200b5
:107100001e30ef0001818000301f2000808f500072
:1071100003003e00008180000000e800008188003c
:1071200000818000e10f500003003a0000808000e1
:1071300000f0a0000080880000818000e50f500072
:1071400001003a006d70ef000181800030022000e4
:10715000808f500001003a006870ef0001818000cc
:10716000301f2000808f50007d003600c0728000ec
:10717000700060000000e00003003200008080002a
:107180000000a10000808800008080000010a100a5
:10719000008088001180800030512000808f5000d6
:1071a00003003e00008080000020a10000808800d5
:1071b000008080000030a1000080880043d0bf0024
:1071c0000004e00003003200008080000040a100c5
:1071d00000808800610021009140780030c7b30032
:1071e00080cf500003003e00008080000050a100ce
:1071f00000808800008080000060a100008088007e
:1072000015d0bf00e14f500006003a00008080001a
:107210000070a1000080880010c0b3001cf0b7000f
:10722000010037001c70ef0061948000c0762000e0
:10723000808f500003003600008080000080a10095
:107240000080880051808000a0232000808f5000a3
:107250000200360000808000008088004ad0bf0015
:107260000004e000030032000080800000b0a100b4
:10727000008088000080800000a0a10000808800bd
:107280000080800000f0a1000080880034003700fa
:107290002030ef00f1808000301f2000808f5000f0
:1072a00003003e00f08080000000e800f0808800cd
:1072b000f1808000201f2000808f500028003600c1
:1072c000508180006f00500041818000810f50008c
:1072d00004003600408180006f004000408188003b
:1072e0001f003700508180006f0040004181800006
:1072f000810f500004003100408180006f00500079
:10730000408188001600370040818000408188005d
:10731000708180000080e90061818000810f500051
:1073200004003600608180000080e80060818800f1
:107330000b003700708180000080e80061818000d0
:10734000810f500004003100608180000080e9005e
:1073500060818800020037006081800060818800c1
:10736000408080000000e000470032008630ef00df
:1073700041848000301f2000808f500003003e00b9
:10738000408480000000e800408488004084800041
:10739000e10f500004003a005aeea900408080003e
:1073a0000070a0004080880040848000e20f500000
:1073b00005003a00ba23ef0010002000001e8800ec
:1073c0009d83a8009e43a90040848000ea0f5000de
:1073d00001003a006c70ef0041848000301f2000f3
:1073e000808f50005a003600518080008025200098
:1073f000808f500003003600408080000000a10014
:10740000408088005180800030512000808f5000e3
:1074100003003e00408080000010a10040808800f2
:10742000408080000020a1004080880040808000d3
:107430000030a10040808800d1838000505420009b
:10744000808f500003003e00408080000040a1007b
:1074500040808800408080000050a100408088006b
:107460001ad0bf00e14f500003003a004080800076
:107470000060a10040808800408080000070a10072
:1074800040808800320037008830ef00318480006f
:10749000b05d2000808f500003003e0030848000eb
:1074a0000000e8003084880031848000001920004a
:1074b000808f500002003a0010c0b3006cf0b7009b
:1074c00031848000401f2000808f50000a003a0065
:1074d000309480005084880051848000b083800004
:1074e000808f500002003600b083800050848800f6
:1074f0009d83a9009e43a80031848000401f200086
:10750000808f50000a00360051848000b0838000d4
:10751000808f500004003100508480006a004000d9
:107520005084880002003700508480005084880016
:10753000408080000000e00005003a0031848000b7
:10754000b05d2000808f5000010036005aeea80088
:10755000b180800040512000808f50000300360031
:1075600040512000b080880006003700b1808000c4
:1075700070252000808f500002003e0080252000f2
:10758000b080880071828000b08080000100b80067
:10759000c60add004a00de0000807200ca08de0074
:1075a0000000780050818800c180800040152000d4
:1075b000808f50000200360040152000c0808800f7
:1075c000c0808000f30f500002003e004001200008
:1075d000c0808800808080008000eb00a2f7070058
:1075e0003233230033fb2300c6f7070083f707007d
:1075f00000007800308888003188800040ce20006c
:10760000808f50000200360040ce20003088880075
:1076100031888000703e2000808f500002003e00c4
:10762000803e2000308888003088800020818800db
:10763000610021009140780020c7b30080cf500046
:107640001400360006d0bf000080fb003007b100f8
:10765000c11220000100b8000000780030818800cd
:10766000308880008025b10031818000810f50007a
:1076700003003100308880008025b100308188000f
:107680003188800030818000008050003081880087
:10769000020037003088800030818800218180001e
:1076a00030818000808f50000200360030818000e1
:1076b00020818800108080000001e8002181800086
:1076c00040062000000ab8002407980035079800fb
:1076d0002e029000be0290000500090042aad800c8
:1076e0007081880071818000c0808000808f500090
:1076f00002003600c0808000708188009182800086
:10770000708180000100b800c60add004a00de007a
:1077100000807200ca08de0000007800d004b000cb
:107720007081880042d0bf000040e80042f0b700fe
:1077300042d0bf00f44f500013003a004270ef00f7
:10774000a02a210080c0eb0001487800b02a210067
:1077500051c5b30001487800c10121009140780073
:10776000c02a210001487800c02a2100104078007a
:1077700042c5b30082404000d02a21000148780071
:1077800010c0b30040f0b70043d0bf000004e000d9
:107790000400320043d0bf000040e90043f0b700ce
:1077a00003003700008080000040a00000808800b7
:1077b00044d0bf000004e0000600320044d0bf0007
:1077c0000040e90044f0b70010c0b30041f0b7003a
:1077d0007000370041d0bf00e14f50006d003a000b
:1077e0004170ef003fd0bf00e84f500062003a0008
:1077f000e02a210010407800e14f40005e003a008e
:10780000f02a21009040780050c5b30080cf50008e
:1078100059003a008040eb000e00e8000148780073
:10782000e02a210090407800f02a210010407800e2
:1078300080c04000002b21001040780080c0400034
:10784000102b21001040780080c04000202b210028
:107850001040780080c04000302b2100104078009c
:1078600080c04000402b21001040780080c04000c4
:10787000502b21001040780080c040000e00e8002e
:1078800001487800602b2100904078000e00e8004d
:107890001040780080cf500037003a0060c9b30034
:1078a00043f0b700002b2100104078000ef0b70025
:1078b000102b2100104078000080fb00c800dd0084
:1078c000202b2100104078000080fb000080400049
:1078d00040888800408880006101b800508880009e
:1078e0006188800002004000838048005088880042
:1078f00061888800708880000000e8007088880037
:1079000070888000ff0f50000b0036005088800008
:1079100061888000cb09dd004500de000080710039
:10792000c508de0000007800808088000a31ef0082
:107930000c31ef000e31ef00302b210010407800a9
:107940000080fb0090808800908080004800dd006f
:1079500090808800402b2100104078000080fb00c0
:10796000918080000080700090808800502b210062
:107970001040780014f0b7003f70ef00e02a2100bb
:107980008040eb0001487800f02a21008040eb00a5
:107990000148780049d0bf000040e80049f0b70036
:1079a00049d0bf00f44f500070003a004970ef001a
:1079b000702b210080c0eb0001487800802b210053
:1079c00051c5b30001487800e100210091407800e2
:1079d000902b210001487800808080004800de0064
:1079e00080407800a02b2100014878008080800032
:1079f00080407800b02b2100014878009080800002
:107a00004800de0080407800c02b2100014878004b
:107a10009080800080407800d02b210001487800c1
:107a20004101210091407800e02b210001487800bd
:107a3000008080004800de0080407800f02b2100ac
:107a4000014878000080800080407800002c2100f0
:107a500001487800108080004800de0080407800f7
:107a6000102c2100014878001080800080407800b0
:107a7000202c210001487800208080004800de0092
:107a800080407800302c2100014878002080800060
:107a900080407800402c21000148780061002100de
:107aa00091407800502c21000148780040808000ef
:107ab0004800de0080407800602c210001487800fa
:107ac0004080800080407800702c210001487800c0
:107ad000508080004800de0080407800802c21002b
:107ae000014878005080800080407800902c210070
:107af00001487800608080004800de008040780007
:107b0000a02c21000148780060808000804078002f
:107b1000b02c210001487800c02c21008040eb00ef
:107b2000014878000040eb00004f78000a00370061
:107b3000c02c2100904078001e80fb00722b210099
:107b4000000041001040780080c04000c02c21009f
:107b5000014878001e4fe8001e407800f44f5000a6
:107b6000f3ff360010c0b30047f0b7004ad0bf00a3
:107b70000004e000040032004ad0bf000040e900e9
:107b80004af0b700060037000080800000b0a00077
:107b900000808800008080000070a00000808800c5
:107ba0004bd0bf000004e000060032004bd0bf0005
:107bb0000040e9004bf0b70010c0b30048f0b70038
:107bc000faf9370048d0bf00e14f5000f6f93a000b
:107bd0004870ef0046d0bf00e94f500064003a0003
:107be000d02c210010407800e14f400060003a00a6
:107bf000e02c21009040780050c5b30080cf5000a9
:107c00005b003a008040eb000e80e80001487800fd
:107c1000002d21009040780070c7b30080cf500045
:107c200010003a00102d21009040780070c7b3007a
:107c300080cf50000b003a00202d210090407800aa
:107c400070c7b30080cf500006003a00302d2100ed
:107c50009040780070c7b30080cf500001003a0018
:107c60000000fe00d02c210090407800e02c210084
:107c70001040780080c04000f02c210010407800b7
:107c800080c04000002d21001040780080c04000de
:107c9000102d21001040780080c04000202d2100d0
:107ca0001040780080c04000302d21001040780046
:107cb00080c04000402d21001040780080c040006e
:107cc000502d21001040780080c040000e80e80058
:107cd00001487800602d2100904078000e80e80077
:107ce0001040780080cf500021003a0060c9b300f6
:107cf0004af0b700f02c21001040780015f0b700d2
:107d0000002d2100104078000080fb00b08088002a
:107d1000b08080004800dd00b0808800102d210078
:107d2000104078000080fb00b1808000008070006f
:107d3000b0808800202d2100104078000080fb00da
:107d4000c800dd00302d2100104078000080fb00cd
:107d500000804000c0808800402d21001040780045
:107d60001af0b700502d2100104078001bf0b7002a
:107d70004670ef00d02c21008040eb0001487800d5
:107d8000e02c21008040eb000148780087f93700a3
:107d900016110000540100008200000005000500db
:107da00000060000060006000007000007000700ac
:107db0000008000008000900000900000a000a008d
:107dc000000b00000b000c00000c00000d000e006a
:107dd000000e00000f001000001100001100120042
:107de0000013000014001500001600001700180012
:107df000001900001a001c00001d00001e001f00da
:107e00000021000022002400002500002700280097
:107e1000002a00002c002e0000300000310033004a
:107e20000036000038003a00003c00003e004100ef
:107e30000043000046004800004b00004e00510087
:107e40000054000057005a00005d0000600064000c
:107e5000006700006a006e00007200007500790083
:107e6000007d000081008500008a00008e009200e5
:107e7000009700009b00a00000a40000a900ae0035
:107e800000b30000b800bd0000c20000c700cd0074
:107e900000d20000d700dd0000e30000e800ee00a3
:107ea00000f40000fa00ff00000501000c011200c0
:107eb000011801001e012400012b010031013700cf
:107ec000013e010044014b000151010058015e00d8
:107ed000016501006c0172000179010080018600da
:107ee000018d010094019b0001a10100a801af00d8
:107ef00001b60100bc01c30001ca0100d101d700d5
:107f000001de0100e501eb0001f20100f901ff00d3
:107f1000010602000c0213000219020020022600d2
:107f2000022c020032023900023f020045024b00df
:107f30000251020057025d000263020068026e00f7
:107f40000274020079027f00028402008a028f001c
:107f50000294020099029e0002a20200a602ab0057
:107f6000020000006a1200006e00000080000000a5
:107f7000001000001001000080000000101100003f
:107f80000600000082000000010304000506000056
:107f9000d81200000400000082000000ffffff0074
:107fa000ff00000000000000ffff3700ffffff00a0
:107fb000ffffff00ffffff00ffffff00ffffff00cd
:107fc000ffffff00ffffff00ffffff00ffffff00bd
:107fd000ffffff00ffffff00ffffff00ffffff00ad
:107fe000ffffff00ffffff00ffffff00ffffff009d
:109000000000fa00ffff37000000fa00ffff370002
:109010002600fa00881f780000002c0001102000b4
:109020009cec0700008fbe0050052000a10a200024
:10903000f6eb07001e00be0023ec0700e40047002b
:109040008048780064004700104078000004a200c7
:109050000004e00001003200e9ff07003023220095
:1090600011012000660147000089be0060562500fe
:10907000410420006a0147000089be00c0bc2b00eb
:10908000a10a20006e0147000089be00f0ef2e000b
:10909000d10d2000720147000089be006a00470020
:1090a0001001be00660047001000be000202be00b4
:1090b0000001be001e00be0011ec0700e4004700e6
:1090c0008048780064004700104078000084fb006e
:1090d000720047001001be006e0047001000be0085
:1090e00044002000050020003e034200ae834a00f9
:1090f0000202be000001be000600be0000ec070038
:109100000080fb000000640000f0a7000000ea00ff
:109110000000ea00cf00de0064004700014878004c
:1091200064004700104078000004a2000004e00042
:1091300001003200b2ff0700b9eb07001e00be00bd
:10914000d4eb0700760147000089be002200200012
:10915000030020003e004100ae804900cdeb070037
:109160007a0147000089be0044002000050020006d
:109170003e004200ae804a00c6eb07007e01470079
:109180000089be0062002000030020003e00410074
:10919000ae804900bfeb0700220220000e01410013
:1091a0000089be00660047001001be00760047003f
:1091b0001000be00800f5100818f590016003a0048
:1091c0006a0047001001be007a0047001000be0090
:1091d000800f5100818f59000f003a006e00470048
:1091e0001001be007e0047001000be00800f51003d
:1091f000818f590008003a00720047001001be003c
:10920000200220000e0040001000be00800f510020
:10921000818f5900010032007bff07004f04780066
:109220000080fa00000006000e00fa0000002c008a
:109230000110200017ec0700640147000089be0000
:1092400050052000a10a200070eb070064004700d1
:109250001000be009ceb0700e80047008048780043
:1092600068004700104078000004a2000004e000fd
:109270000100320062ff07006000b800008fbe00ee
:109280001800370024002000050020003e014200a5
:10929000ae814a00640047001000be003e0240005c
:1092a000ae8248000400be000202be001e01be00e5
:1092b00093eb0700e800470080487800680047000b
:1092c000104078000004a2000004e0000100320019
:1092d0004bff070042002000030020001e0f41004a
:1092e0005e974900f07f2000010020001e01be00b3
:1092f000800f5100818f5900e2ff360048eb0700d4
:109300006000b800008fbe00120037006400470004
:109310001000be003e024000ae8248000400be00c5
:109320005ceb07006a0147000089be006a00470045
:109330001000be00be0f5000ae8f5800010032007a
:1093400031ff070022002000030020001e0f410013
:109350005e974900f07f2000010020001e01be0042
:10936000800f5100818f5900e8ff36000080fa001d
:10937000000006000000fa0025ff0700aaff070012
:109380000080fa00000006000600fa000e81e800e6
:109390000089be0010c0b300004f780050052000c7
:1093a000a10a200019eb07000e80e8001000be00a3
:1093b00045eb0700004f780019eb07000080fa002a
:1093c000000006001200fa00889fbe006a024700f3
:1093d000008abe006e0047000288be0010c0b300c5
:1093e000004f780050052000a10a200007eb07007d
:1093f0006e0047001001be00f0ff2f00f10f2000ab
:109400000202780003017800800178008100780072
:10941000030062008100610081047800000478008c
:109420000800be000e81e8000089be006e00470003
:109430001000be004808de00010020006601470061
:109440000089be001e84fb00660047001001be00bc
:109450000e80e8001000be000202be000001be0047
:109460006a0047001000be0025eb07000080fb00eb
:109470000000640000f0a7000000ea000000ea001d
:109480004f00de00004f7800e5ea07001e4078003c
:109490004f04be000080fa00000006001000fa0031
:1094a0006c0147000089be006c0047001000be0040
:1094b000f8ea0700640147000089be006c0047001d
:1094c0001000be0062004000e0804800f1ea0700a2
:1094d000680147000089be00640047001001be001b
:1094e000680047001000be00c800dd00000020003a
:1094f000001f7100019771001e00be000080fa007d
:1095000000000600f8ffff00ffffff007bffff00e9
:10951000ffffff00ff7fff00ffffff00ffffff00d7
:10952000ffffff00dfffff00ffffff00ffffff0067
:00000001FF
